:020000040800F2
:10000000008001206D4B0008A14B0008A14B0008A7
:10001000A14B0008A14B0008A14B00080000000004
:10002000000000000000000000000000A14B0008DC
:10003000A14B000800000000A14B0008A14B0008E4
:10004000A14B0008A14B0008A14B0008A14B0008E0
:10005000A14B0008A14B0008A14B0008A14B0008D0
:10006000A14B0008A14B0008A14B0008A14B0008C0
:10007000A14B0008A14B0008A14B0008A14B0008B0
:10008000A14B0008A14B0008A14B00080000000094
:10009000000000000000000000000000A14B00086C
:1000A000A14B0008A14B0008A14B0008A14B000880
:1000B000A14B0008A14B0008A14B0008A14B000870
:1000C000A14B0008A14B0008A14B0008A14B000860
:1000D000A14B0008A14B0008A14B00080000000044
:1000E000A14B0008A14B0008A14B00080000000034
:1000F000000000000000000000000000A14B00080C
:1001000000000000A14B0008A14B0008A14B000813
:1001100000000000000000000000000000000000DF
:10012000A14B0008A14B0008A14B0008A14B0008FF
:10013000A14B0008000000000000000000000000CB
:10014000000000000000000000000000A14B0008BB
:10015000A14B0008A14B0008A14B0008A14B0008CF
:10016000A14B0008A14B00080000000000000000A7
:10017000000000000000000000000000000000007F
:1001800000000000A14B000800000000000000007B
:10019000A14B000810B5054C237833B9044B13B1BB
:1001A0000448AFF300800123237010BDC80C002069
:1001B00000000000E4860408084B10B51BB1084994
:1001C0000848AFF300800848036803B910BD074B27
:1001D000002BFBD0BDE81040184700BF0000000016
:1001E000CC0C0020E4860408C00C002000000000B5
:1001F000154B002B08BF134B9D46A3F5803A0021F9
:100200008B460F461348144A121A31F0A9FE0F4BC1
:10021000002B00D098470E4B002B00D098470020B1
:10022000002104000D000D48002802D00C4804F005
:10023000CCF931F06FF82000290004F085F904F0C2
:10024000C1F900BF0000080000800120000000008C
:100250003B450008C80C0020B83B0020CB450008F7
:100260000000000073B5044615461E4600F014FE5B
:10027000BDF91C3000933246BDF91830294604F10F
:100280001C0000F021FF204602B070BD10B50446EE
:100290001C3000F08EFE204600F01EFE204610BDF1
:1002A00007EE901AB3EE097AF4EEC77AF1EE10FA7F
:1002B00008D8BBEE097AF4EEC77AF1EE10FA01DB4A
:1002C00000F00EBE7047000006EE901ADFED047AD3
:1002D00086EEA77A1C3017EE101A00F091BE00BF10
:1002E0000000C8421C3000F0B5BE000006EE901AB7
:1002F000DFED047A86EEA77A1C3017EE101A00F0B4
:1003000081BE00BF0000C84270B50C46002304F84F
:10031000043B064605460FCC0FC50FCC0FC594E82D
:10032000030085E80300304670BD000070B592B050
:1003300010AB07930FAB06930EAB05930DAB049375
:100340000CAB03930BAB02930AAB019309AB009385
:10035000044615460846012608AB11AA164911960F
:1003600032F07CFA0A2820D1DDED107AF5EEC07A61
:10037000F1EE10FA19DD119BB34216D83340237108
:10038000089BA360099BE3600A9B23610B9B63614D
:100390000C9BA3610D9BE3610E9B23620F9B636229
:1003A000C4ED0A7A2670054900E00549284632F076
:1003B0002FFA12B070BD00BF642804088228040818
:1003C000882804087047704770477047704710B519
:1003D0001421044607F0F2FB204610BD10B51C2185
:1003E000044607F0EBFB204610BD10B5242104465F
:1003F00007F0E4FB204610BD10B57821044607F055
:10040000DDFB204610BD10B59421044607F0D6FB55
:10041000204610BD91ED007AD0ED007A77EEC77AD4
:10042000C0ED007A91ED017AD0ED017A77EEC77ACE
:10043000C0ED017A704700002DE9F04F444B0C46A7
:1004400089B00546202240F8043B002131F088FDA8
:10045000271DE3680693002623690793394606A8FB
:10046000FFF7D8FF079A0699009602A8394B40F08B
:1004700007FE394BE1681A685B68049205932269AC
:10048000009602A84FF08043DDF808B0DDF80CA01C
:1004900040F0F6FD029B0493039B0593636806936B
:1004A00004A9A368079306A8FFF7B4FFD4ED066A72
:1004B000DDED077A94ED057A009676EEA77A02A82C
:1004C00017EE902ADDED067A224B77EE277A17EEAB
:1004D000901A40F0D5FDE368069304F114012369F6
:1004E000DDF80890DDF80C80079306A8FFF792FF6F
:1004F000079A184B0699009602A840F0C1FD94EDAA
:10050000087ADDED037ADDED026A77EE877A94ED05
:10051000077ACDED057A37EE267A394604A88DEDB7
:10052000047AFFF777FFA3686268AB60049BEB6116
:10053000059B6A602846C5F80CB0C5F810A0C5F840
:100540001490C5F818802B6209B0BDE8F08F00BF89
:10055000A028040800004040D82804082DE9F043F2
:100560008FB00361169B4361179B8361189BC36126
:10057000199B017103621C991A9BC0F88010436299
:100580001D991B9BC0F884100446C260836200F171
:10059000080106AE05A8FFF74FFF0FCE04F13005A6
:1005A0000FC596E80F0085E80F00182200210DEB1B
:1005B000020031F0D5FC274605AD00264FF00009BA
:1005C000013607EE906AF8EEE77ACDF80090FA6B04
:1005D000B96B17EE903A02A840F052FD039B029AC5
:1005E0006A60032E4FF0000845F8083F07F108073E
:1005F000E6D106AD0FCD04F154060FC695E8030011
:1006000086E803004FF07E53226EE16DCDF8008046
:1006100002A840F035FDA26E616ECDF8008002A800
:100620004FF08043029E039D40F02AFDD4ED206AE6
:1006300094ED217A029BA367C6EE877A039BE3675A
:1006400026676567FDEEE77A17EE900A40F052F9EB
:1006500002460B460020074940F0DCFA40F0A8FCB7
:100660000123C4F88800C4F88C8084F890300FB05F
:10067000BDE8F0830000F03F2DE9F04FD1E90067BD
:1006800085B0002400250190884691462B462246DD
:100690003046394640F0FCFB30B122462B46D8E9C3
:1006A000020140F0F5FBE8B998ED027B002400253B
:1006B00022462B4651EC170B8DED027B40F0E8FBF8
:1006C000B0B122462B463046394640F009FC78B19D
:1006D000D9E90023304639462CF01AFF019BC3E9C3
:1006E000000102E0019BC3E90045C3E902457DE04A
:1006F000039B029C27F0004B23F0004522462B462B
:1007000030465946B24640F0CDFB08B1A246AB4652
:10071000002200235046594640F0BAFB60BB5246C7
:100720005B463046394640F075FA524604460D465F
:100730005B46DDE9020140F06DFA224606460F46AF
:100740002B462046294640F03BF9324604460D46EA
:100750003B463046394640F033F902460B462046C8
:1007600029463FF07BFF2DF057F802460B465046D6
:10077000594640F025F901E0504659462CF048FE14
:10078000D8E9002304460D46D8E902012CF0C0FD4B
:10079000D9E9002306460F462046294640F010F9C5
:1007A0002CF0BAFDD9E9002304460D4630463946FF
:1007B00040F006F9804689462CF01AFD02460B46A9
:1007C0002046294640F0FCF806460F46404649467A
:1007D0002CF05AFD019B0246C3E9006720460B46F8
:1007E000294640F0EDF8019BC3E90201019805B0EC
:1007F000BDE8F08F000000002DE9F04F2DED0A8BD1
:1008000091F890309FED948A95B005460C4693463A
:1008100023B980ED008A80ED018A09E19FED88AB64
:1008200001F1540AB0EE489A4FF000090DF1280882
:100830000EAF584640F070F8CDE90201CDE9100145
:1008400048468DED12AB40F055F810AE3A46CDE972
:100850000E0131464046FFF70FFF9DED0A7BDAF8A7
:1008600000300793DDE90C018DED047B40F0A0FB27
:100870000690DDE9040140F09BFBDAED018A079B5D
:10088000CDED008A0146069A08A840F0F9FBDDED9F
:10089000088ADDED099A78EE888A79EE899A09F15D
:1008A0000109B9F1030F0AF1080AB0EE688AB0EE47
:1008B000699A9FED63BBBCD1B1EE69CA18EE903A5C
:1008C00019EE902A18EE901A08A88DED00CA40F093
:1008D000D7FB08989FED608A40F01EF82CF09CFF33
:1008E00040F066FBD4ED207A0AEE100ACAEE27AA81
:1008F00070344FF00009B0EE489A9DED027B4846F7
:100900008DED107B8DED12BB3FF0F4FF3A46CDE943
:100910000E0131464046FFF7AFFE23680693DDE93E
:100920000C0140F045FBDDE90AAB04905946504606
:1009300040F03EFBD4ED01CA069BCDED00CA014656
:10094000049A08A840F09CFBDDED087A09F1010942
:1009500038EE278ADDED097AB9F1020F04F10804B7
:1009600037EE899AC9D1F1EE497ACDED007A18EEC9
:10097000103A19EE902A18EE901A08A840F080FB61
:1009800019EE102A18EE903A18EE101A08A88DEDFC
:1009900000CADDF82080099C40F072FB089B0E9392
:1009A0003946099B0F933046CDF840801194FFF7EC
:1009B00031FD00244FF040430093119A10992346D3
:1009C00008A840F00FFDB5EE40AAF1EE10FADDF8F0
:1009D000208003D1C5ED00AA6C6029E01AEE100A50
:1009E0003FF09AFF00221D4B2CF092FD06460F4669
:1009F00040463FF091FF32463B4640F00BF940F055
:100A0000D7FA3FF089FF10A3D3E900233FF0D8FFC6
:100A10002CF04EFAC5ED00AA40F0CAFA3FF07CFF78
:100A20000BA3D3E900233FF0CBFF40F0C1FA68608D
:100A3000284615B0BDEC0A8BBDE8F08FAFF30080FF
:100A40000000000000000000F6285C8FC2F5D03FD7
:100A5000F8C1631ADCA54C4000000000000008400B
:100A600038B5D1F88C200C460546FFF7C5FED4ED0D
:100A7000237A94ED227A77EE877A2846C4ED237A9A
:100A800038BD000010B5054C204607F081FB20461C
:100A9000034A0449BDE8104003F092BDE40C002075
:100AA00098010020AD810008027B22B1036800227A
:100AB0000273DB68184770472DE9F041C16A2DEDDC
:100AC000028B0B7892B00446FBB1012380F82830EA
:100AD00080F8293008A8FFF717FC636A0793119B79
:100AE00006930F9B0493109B05930D9B02930E9B03
:100AF00003930B9B00930C9B01939DF82010099A84
:100B00000A9B04F13000FFF729FD94F82830002BF0
:100B10004DD0D4ED2F7AF5EEC07AF1EE10FAC0F296
:100B20001581B7EE008AF4EEC87AF1EE10FA00F201
:100B30000D8108A804F13001FFF792FF94F83430DA
:100B40000898002B94F82A30FFEE007A08BFB0EE28
:100B5000678A002B00F003813FF0DEFE0022A44BE9
:100B60003FF02EFF064618EE100A0F463FF0D4FE67
:100B700002460B46304639463FF022FF40F018FA55
:100B8000E061DDF82480C4F82080E0693FF0C4FE15
:100B9000064640460F4625693FF0BEFEBC35CDE90E
:100BA000000132463B469349284606F0F1FB94F893
:100BB0002930022B00F0C280D4F8F0301A78002AD5
:100BC00054D094ED077A226A9A60B5EEC07AF1EEBD
:100BD00010FA83ED017A28DDF7EE007AC7EE876A16
:100BE000DA68F2EE047A67EEE67AF2EE006AE7EE91
:100BF000267A92ED097AF4EEC77AF1EE10FA80F2D5
:100C0000DB801A6992ED097AF4EEC77AF1EE10FAF8
:100C100080F2D2805A6992ED097AF4EEC77AF1EE49
:100C200010FA80F2C9809B6918E01FD5F7EE006AC0
:100C3000C6EE877ADA69F2EE046A67EEA67AF2EE19
:100C4000006AE7EE267A92ED097AF1EE677AB4EE61
:100C5000E77AF1EE10FA40F2AF801B6A93ED097A61
:100C6000F4EEC77AF1EE10FA80F2A68094F82930FB
:100C7000012B03D0022B40F0A3805FE0216AA06922
:100C8000FFF70EFB94F82A30002B52D0E069D4F81D
:100C9000EC503FF041FE4EA3D3E900233FF090FE1D
:100CA00021F00043C5E90201194640F081F93FF007
:100CB00033FE2B680646D86E0F463FF02DFE0246E7
:100CC0000B46304639463FF0C7FC12AB63E90A01D8
:100CD0006868026819461268904700220023064699
:100CE0000F4640F0DFF848B90022434B3046394602
:100CF00040F0F6F820B100263F4F01E00026002723
:100D0000C5E90467DDE90823D5E90201C5E9062341
:100D10000022002340F0C6F818B107F100432E610D
:100D20006B61D4F8EC30D3E9040140F041F901469D
:100D300000E0E169A069FFF7C7FA41E0A069216A14
:100D4000FFF7AEFAA069FFF7CDFA39E00023E361BF
:100D5000022384F82930002384F8283027E73FF065
:100D6000DBFD1DA3D3E900233FF054FF1CA3D3E90F
:100D700000233FF025FE1CA3D3E900233FF06EFCC7
:100D800040F016F907EE900A27EE888A84ED078A6C
:100D900018EE100A3FF0C0FD0646206A25690F468E
:100DA0003FF0BAFDBC35CDE9000132463B46114962
:100DB000284606F0EDFAE4E6022384F8293055E7E8
:100DC00012B0BDEC028BBDE8F08100BFAFF3008034
:100DD000E1021AB67793DB3FC381902C6002B33FE8
:100DE000659DFE82F888DA3F72D1884E9DA013403F
:100DF00000005940082904080000344038B5054671
:100E0000074B45F8183B044606F032FC636A13B101
:100E10009B6828469847204606F08AFC204638BD45
:100E20003838040810B50446FFF7E8FF20462821AB
:100E300006F0C4FE204610BD10B5054C204607F054
:100E4000A7F92046034A0449BDE8104003F0B8BBA7
:100E5000E50C002098010020AD81000810B5074B7B
:100E60000360074B044640F8C43FFFF7C7FF04F197
:100E70003000FFF7A7FA204610BD00BFF82804088D
:100E80005038040810B50446FFF7E8FF2046F42167
:100E900006F094FE204610BD38B504460D4606F017
:100EA00097FD2946204603F09DF906F0BBFD06F0AC
:100EB0008FFD2046142103F05DFA06F0B3FD06F025
:100EC00087FD2046034903F081F806F0ABFD20467C
:100ED00038BD00BFAC1C9A3D704700000000000008
:100EE00038B50D46044606F073FD28463FF014FD64
:100EF00009A3D3E900233FF063FD09A3D3E900234D
:100F00003FF0ACFB40F054F80146204603F05EF899
:100F1000BDE8384006F086BD40BD19355F254F3F1E
:100F2000DD2406819543B33F704710B50C2104467C
:100F300006F044FE204610BDB0F90030013310B574
:100F4000044604D148220649064806F027FDA36856
:100F50001A6863681A4214BF0120002010BD00BF48
:100F6000382904086E29040838B5B0F90030013377
:100F700004460D4604D13A220549064806F00EFD06
:100F800063680DB1E26801E022691B04136038BD9B
:100F9000382904086E29040838B504460D4606F0C1
:100FA00017FD2946204603F011F8BDE8384006F049
:100FB00039BD704738B52DED028B08EE101AB5EE2D
:100FC000C08A0446F1EE10FA00F1200004F1340565
:100FD00004D50021FFF7C8FF012103E00121FFF73D
:100FE000C3FF00212846FFF7BFFFF0EEC87A17EED7
:100FF000901A04F10800FFF7CFFFBDEC028B38BD5B
:10100000FFF7D8BF38B500F120052DED028B04465F
:10101000284608EE101AFFF78FFFB0FA80F1490951
:10102000284604F13405FFF79FFF2846FFF784FFA9
:10103000B0FA80F149092846FFF796FFF0EEC87A2A
:1010400017EE901A04F10800FFF7A6FFBDEC028B23
:1010500038BD000010B5002104462030FFF784FFA2
:1010600004F134000021FFF77FFF034904F1080079
:10107000FFF792FF10BD00BF0000C842034610B545
:1010800053F8042B044602B9036022689A4204D044
:1010900059220349034806F081FC206810BD00BFB7
:1010A00086290408A829040808B50248FFF7E6FFC6
:1010B00008BD00BF2C24002008B50248FFF7DEFF62
:1010C00008BD00BF2C2400202DE9F84304460E463D
:1010D00004F1080598469146142706F079FC31463C
:1010E000284604F1200603F07DF806F09BFC3A4602
:1010F0000021304630F034FF4946304604F13406D2
:1011000006F066FB3A460021304630F029FF4146A2
:101110003046104E06F05CFB0F4BA3643046FFF7E1
:10112000ADFFBDF9201004F14C0002F04FF830463D
:10113000FFF7A4FF06F04CFC2846C82102F0BAFFD6
:1011400006F070FC054B2360002363602046BDE879
:10115000F88300BF2C240020282904080AD7233C48
:101160001FB58DF80D3000238DF80C20009303AAD5
:10117000022305F0FFFEB0FA80F0400905B05DF8EB
:1011800004FB000038B504461D4605F083FE1949EE
:10119000204605F0BFFE572320223A212046FFF7C4
:1011A000DFFF2B4621223A212046FFF7D9FF782383
:1011B00024223A212046FFF7D3FF002326223A219A
:1011C0002046FFF7CDFF102D0DD004D84DB1082DCE
:1011D0000ED1094B0AE0182D07D0202D08D1074B5E
:1011E00004E0074B02E0074B00E0074BC4F8D8309F
:1011F000204638BD400D030023DBF93D5A643B3FD8
:1012000023DB793D5A643B3E23DB793EF0B585B064
:101210001F460A9E8DF80F20012EC2BFD3B263F085
:101220007F038DF80F30012300930DF10F02044668
:101230000D4605F09FFE50B9009033463A462946C8
:10124000204605F0B8FEB0FA80F0400900E000202A
:1012500005B0F0BD000000002DE9F04186B0062584
:10126000884617461E46009502AB28223A210446BE
:10127000FFF7CCFF40B1009504AB08223A2120468D
:10128000FFF7C4FF054608B900257AE09DF809205C
:101290009DF8083094ED367A9DF8100043EA022359
:1012A0001BB207EE903A9DF80B209DF80A30F8EE3D
:1012B000E77A43EA022367EE877A1BB2C8ED007A29
:1012C00007EE903A94ED367A9DF80D209DF80C309B
:1012D000F8EEE77A43EA022367EE877A1BB2C7ED9E
:1012E000007A07EE903A94ED367A9DF81130F8EED8
:1012F000E77A43EA002067EE877A00B2C6ED007A0B
:1013000007EE900AF8EEE77A17EE900A3FF004FB3A
:101310001FA3D3E900233FF053FB3FF049FE0C9B92
:1013200018609DF813309DF8120043EA002000B2C7
:1013300007EE900AF8EEE77A17EE900A3FF0ECFA23
:1013400013A3D3E900233FF03BFB3FF031FE0E9B9C
:1013500018609DF815309DF8140043EA002000B293
:1013600007EE900AF8EEE77A17EE900A3FF0D4FA0B
:1013700007A3D3E900233FF023FB3FF019FE0D9BA9
:101380001860284606B0BDE8F08100BFAFF30080CA
:101390007B14AE47E17AC43F1FB58DF80D300023B2
:1013A0008DF80C20009303AA022305F0E3FDB0FAA8
:1013B00080F0400905B05DF804FBF0B585B004ACE1
:1013C00006460F461D4604F8012D72B60023009311
:1013D0002246012305F0CEFD38B9009001232246B4
:1013E0003946304605F0E7FD08B1002003E09DF8DE
:1013F0000F302B70012062B605B0F0BD13B5044666
:1014000005F048FD2046114905F084FD0F232022F8
:10141000D62120468DF80730FFF7BEFF02AB002231
:1014200003F8012DD62123222046FFF7C6FF9DF8A1
:101430000730232203F0CF03D62120468DF8073052
:10144000FFF7AAFF204602B010BD00BFA086010032
:10145000F0B585B01F460A9E8DF80F20012EC2BF41
:10146000D3B263F07F038DF80F30012300930DF1A9
:101470000F0204460D4605F07DFD50B9009033463D
:101480003A462946204605F096FDB0FA80F040091C
:1014900000E0002005B0F0BD7FB51C4606230E46D7
:1014A00015460093282202ABD621FFF7D1FF70B377
:1014B0009DF809209DF80830DFED166A43EA022303
:1014C0001BB207EE103A9DF80B209DF80A30B8EEDB
:1014D000C77A43EA022327EE267A1BB286ED007A0A
:1014E0009DF80D2007EE103A9DF80C3043EA0223D8
:1014F0001BB207EE903AB8EEC77AF8EEE77A27EE1D
:10150000267A67EEA67A85ED007AC4ED007A04B0FB
:1015100070BD00BF00000C4170470000F8B50446E4
:10152000084B094E44F8043B05460F463046FFF78A
:10153000A5FD3946204601F049FE3046FFF79EFDE5
:101540002846F8BD282904082C24002038B5234C4F
:101550002DED028B05462046FFF790FD281D01F07A
:1015600099FE08EE100A2046FFF788FD1C4B93ED0C
:10157000006A1C4BD3ED006A1B4B93ED007A1B4BAA
:10158000D3ED007A1A4B28EE077A68EE277A27EE19
:10159000087A67EE887A27EE087A67EE887A27EE6F
:1015A000087A67EE887A68EE266AE7EE087A66EED1
:1015B000886A28EE066AE6EE887A93ED007A0D4B8B
:1015C000E6EE087AE7EE087ABDEC028B93ED007A3E
:1015D00077EE877A17EE900A38BD00BF2C240020E2
:1015E0009C010020A8010020A0010020A4010020EF
:1015F000AC010020B0010020704710B53021044636
:1016000006F0DCFA204610BD70B590F82C309CB086
:10161000044603B3114903A831F0FAF804F10C05AC
:1016200004F1240655F8043F586A3FF075F903AAFF
:10163000CDE900010A49104631F0EAF8B542F1D18E
:1016400003AA0849104631F0E3F8A06A064903AA44
:10165000BC3005F09DFE1CB070BD00BFBC29040865
:10166000C3290408CC290408D229040882B0F0B5A3
:10167000064605A880E80C00344600270A4B716036
:101680000546B760377344F8103B0FCD0FC495E89B
:1016900003000B9B84E803003046B36286F82C708D
:1016A000BDE8F04002B07047E029040837B51446A1
:1016B00002AA0023054642F8043D0846094931F0D4
:1016C000CDF8012808D1019B0749002BD4BF002386
:1016D000012385F82C3000E00449204631F098F8C9
:1016E00003B030BDCE2C04088228040888280408E2
:1016F000FFF7DCBFF0B5002384681D4601269C423D
:101700000CD0426852F82320916857680131B942E1
:10171000916024BF167395600133F0E7F0BD704708
:10172000836C013383647047D0ED167A90ED177A9D
:10173000F8EEE77A0023C7EE876A8365D0ED187A62
:10174000F8EE677A86EEA77A80ED197A7047D0EDC9
:10175000167A90ED177AF8EEE77A0023C7EE876ADB
:1017600010B50446836504F16401D0ED187AF8EEF3
:10177000677A86EEA77A80ED197A806E03681B6817
:101780009847E06610BD022380F829307047704703
:10179000C36A0133C3627047034610B103C983E8CB
:1017A000030070477047034610B107C983E807007C
:1017B00070477047034610B103C983E803007047C0
:1017C000704703684068184742680368806812F0F1
:1017D000010F4FEA620218BF8158104418BFCB585E
:1017E000184703684068184770477047704770474C
:1017F00070B5C5680469D1ED007A6B1C0C22B3FB8F
:10180000F4F504FB15356A438318C560D9699E69F0
:10181000C3ED057A4E609B69024499608168143279
:1018200091420BD14B6893ED007AF4EEC77AF1EE5A
:1018300010FA0CDD9942836009D009E091ED007A3D
:10184000F4EEC77AF1EE10FA36D8826034E04B68D5
:101850000121661E93ED007AF4EEC77AF1EE10FADC
:1018600004DDB14202D85B680131F3E70C219E68C8
:1018700001FB05057260AB61EE619A6083684360AD
:10188000610800228A42436803D05B6843600132EA
:10189000F8E7E2075DBF9A6893ED007AD2ED007A2F
:1018A000D3ED007A5EBF77EE877AB6EE007A67EE08
:1018B000877A17EE900A70BD0B46C9E7D0ED056A2E
:1018C000DFED107AC0ED066A91ED007A90ED026AC4
:1018D00080ED057AF0EE675AE7EE065A90ED036A5E
:1018E000B0EE657AA6EE267AD0ED046A90ED016A34
:1018F000E6EE267A77EE677AC0ED047A17EE900A64
:10190000704700BF0000000000690249BC3005F0CC
:101910003FBD00BF402C04081FB500F13003029307
:1019200000F12C03019300F128030446009300F119
:10193000200200F1240300F11C010069FFF78CFC78
:1019400004F13C0304F1380204F134016069FFF74B
:10195000A3FD0123237604B010BD10B50446143056
:10196000FFF7F4FD20622069036804F120011B6881
:101970009847606210BD10B54FF48871044606F0B8
:101980001DF9204610BD10B51C21044606F016F9BD
:10199000204610BD10B54021044606F00FF9204640
:1019A00010BD10B51421044606F008F9204610BDFC
:1019B00010B52421044606F001F9204610BD0000B0
:1019C00037B504461546084601AB6A460B4930F068
:1019D00045FF02280BD1009BE361019B236200239A
:1019E00084F82830012384F82930054900E00549AE
:1019F000284630F00DFF03B030BD00BF7C2804083E
:101A0000822804088828040837B504461546084685
:101A100001AA0D4930F022FF01280ED10023E36115
:101A2000019B2362022384F82930D4F8EC30002192
:101A30000020C3E90201054900E00549284630F0CD
:101A4000E7FE03B030BD00BF7F28040882280408E9
:101A500088280408FEF76ABC10B5044B044640F819
:101A6000143BFFF759FD204610BD00BFA82A04080B
:101A700010B50446FFF7F0FF2046302106F09EF82F
:101A8000204610BD37B5144602AA0023054642F889
:101A9000043D0846094930F0E1FE012807D1019BC9
:101AA0000749002BD4BF002301232B7000E0054918
:101AB000204630F0ADFE03B030BD00BFCE2C040890
:101AC00082280408882804082A30FFF7DBBFFFF7C4
:101AD000D9BF0D30FFF7D6BF00F1080373B5044638
:101AE00003600D4681B1084632F02AF90F2805EB54
:101AF000000601900BD9002201A9204617F0FEF83C
:101B0000019B2060A36002E0074806F07FFE32469A
:101B10002946206817F044F9019B22686360002180
:101B20002046D15402B070BD442C0408437B10B54C
:101B300004466BB10369D86E3EF0EEFEA46902461E
:101B40000B4604F1BC000349BDE8104005F020BC81
:101B500010BD00BF6E2C040838B5B0F91030013349
:101B6000044604D148220C490C4805F017FFA3692C
:101B70001D6863691D40B4F91030013304D13A2265
:101B80000549064805F00AFF63690DB9E26901E0FD
:101B9000226A1B04136038BD382904086E29040822
:101BA00038B505460024AB689C4207D26B6853F8F1
:101BB000240003689B6898470134F4E738BD70B58A
:101BC000044672B6FF263546206905F043FC80B313
:101BD000D4F81831D4F81C110133B3FBF6F2C2EB80
:101BE00002229B1A8B4224D02069BC3005F0BEFB38
:101BF000D4F81831D4F81C110133B3FBF6F2C2EB60
:101C000002229B1A8B42DFD0D4F818312344C0B291
:101C10001876D4F818310133B3FBF5F2C2EB022287
:101C20009B1AC4F81831D4F820310133C4F820319C
:101C3000CAE762B670BD08B5FFF7C1FF08BDC3684B
:101C400010B504460BB19B689847204610BD0000B4
:101C500010B5044B044640F8043BFFF7F0FF204664
:101C600010BD00BFD836040810B5044B044640F838
:101C7000043BFFF7E4FF204610BD00BFD836040840
:101C8000C36810B504460BB19B689847204610BD49
:101C900038B50446054B44F80C3B0546204605F094
:101CA000E7FC2046FFF7AAF8284638BDF8290408C3
:101CB00010B50446FFF7ECFF2046342105F07EFF07
:101CC000204610BD38B5094B036090F8303004460B
:101CD000051D2BB1002380F83030284605F0C8FCE4
:101CE0002846FFF78BF8204638BD00BFD82A0408E5
:101CF00010B50446FFF7E6FF2046342105F05EFFED
:101D0000204610BD70B506460B4B46F8983B04467E
:101D100046B100F1B805B54204D0103D2846FFF7A2
:101D2000AFFFF8E704F13800FFF789FF04F128005E
:101D3000FFF785FF204670BD2038040810B5044623
:101D4000FFF7E0FF2046BC2105F038FF204610BD1C
:101D500010B5094B036003F120025C330446C0F860
:101D6000BC20C0F8C030BC3005F0DAFA2046FFF7DE
:101D7000C9FF204610BD00BF60370408A0F1BC00B9
:101D8000E6E7A0F1C000E3E738B5CB6804460D46AE
:101D90000BB15B689847EB68E360204638BD0000F4
:101DA00030B52DED028B85B00546684608EE102A49
:101DB000FFF7EAFFDFED0D7A05F1180428EE278A18
:101DC0002046BCEEC88AFFF75BFF1CB1694620467F
:101DD000FFF7DAFF18EE101A284605F035FC6846C2
:101DE000FFF74EFF05B0BDEC028B30BD00247449F7
:101DF00070B586B004461546084601AB6A461549DB
:101E000030F02CFD02281ED194F82930DBB10023DC
:101E1000E361019B23620099A069FEF767FA0E4B0C
:101E2000029302A90D4B0E4A0593002604F1C4004B
:101E300003960494FFF7B4FF02A8FFF721FF84F88C
:101E40002960084900E00849284630F0E1FC06B066
:101E500070BD00BF7C28040887170008102B0408F9
:101E60000AD7233D82280408882804087FB51C4C23
:101E70001C4D1D4E20464FF4E121BC3405F0D6FA2E
:101E80001A49204605F084FA2946204605F080FAD2
:101E90003146204605F07CFA1549204605F078FACF
:101EA0003146204605F074FA2946204605F070FABE
:101EB0001049204605F06CFA0F480190012380F884
:101EC00030300E4B00930E4A0E4B0393694604309C
:101ED000FFF766FF6846FFF7D3FE002004B070BD31
:101EE0007C1200207F2C0408932C04087A2C040810
:101EF000A72C04087C2C040814100020911700085B
:101F000017B7D1381C2B040810B5FFF7AFFF0446F4
:101F100018B90548FFF744FEFBE7024603490448A9
:101F200005F036FA204610BD60150020BB2C0408D1
:101F300038130020D0F8082110B50132D0F8044140
:101F4000FF23B2FBF3F1C1EB0121521AA24214D0DC
:101F5000D0F808210132B2FBF3F3C3EB0323D31A09
:101F6000C0F80831D0F8083103441B79D0F80C21AF
:101F7000013AC0F80C21184610BD002010BDF8B57C
:101F8000044672B6FF2600F59275206905F073FAD3
:101F9000B0B1D4F82C32D4F828120133B3FBF6F2E6
:101FA000C2EB02229B1A8B420AD0206900F1BC07C7
:101FB0002846FFF7BFFF0146384605F0C3F9E4E7BE
:101FC00062B6F8BD38B5114B202504462A4640F8C4
:101FD000043B00212FF0C4FF0D4B63622A46002111
:101FE00004F128002FF0BCFF0A4BA3641822002143
:101FF00004F14C002FF0B4FF074B63661022002160
:1020000004F168002FF0ACFF204638BDD02804084A
:10201000A0280408B0280408C0280408F0B5054624
:102020001C4B45F8143B00F58E7100F12003002491
:10203000002243F80C4C43F8082C43F8042C0C33D2
:102040008B424FF0000EF4D10146002315240C27DB
:102050005E1CB6FBF4F204FB126207FB02021432B0
:1020600014338A61B3FBF4F204FB123307FB03035E
:102070001433152ECB61C1F814E0334601F10C0185
:10208000E6D1142200F18C03C260066143608560D2
:10209000F0BD00BF002B0408C36810B504460BB1A7
:1020A0009B689847204610BD38B5CB6804460D465E
:1020B0000BB15B689847EB68E360204638BD38B5E4
:1020C00004461546FFF708FD294604F11800FFF7FE
:1020D000EBFF204638BDF8B507460C4694B1E168E1
:1020E0003846FFF7F8FF04F1100604F12800A56850
:1020F000FFF7D2FF304616F027FE204602F0CAFA5C
:102100002C46EBE7F8BD10B581680446FFF7E3FF06
:10211000204610BD10B5054BD0F8401303600446AF
:1021200000F54E70FFF7D7FF204610BD602A040867
:1021300010B50446FFF7EEFF20464FF4547105F04A
:102140003DFD204610BD30B500240025C0E9024504
:10215000C0E90045C0E90445C0E90645C0E90845B5
:10216000C0E90A4530BDD1E90023C0E90023D1E927
:102170000223C0E90223704710B5D1E900230446C9
:10218000D1E902013EF046FDC4E9040110BD0000A2
:102190002DE9F04F9DB00BAB01930AAB00930546C0
:1021A0009246084609AB08AA484930F057FB042874
:1021B00040F0858009983EF0AFFB80460A9889463A
:1021C0003EF0AAFB06460B980F463EF0A5FBCDE974
:1021D000060108983EF0A0FBC5E90201286F3EF019
:1021E0009BFB42464B463EF0EBFB05F11008CDE968
:1021F0000C01CDE90E010CA94046FFF7B4FF344BAA
:102200000FCB0DF1400E18AC8EE80F0084E80F00E4
:1022100071464046FFF7B0FF32463B4630463946EE
:102220003EF01CFA0022CDE914014FF04043304645
:1022300039463EF0C5FB05F1400BCDE9160114A966
:102240005846FFF790FFDDE90623104619463EF099
:1022500005FA0646286F0F463EF05EFB804689462B
:1022600002460B46304639463EF0F8F932463B46C8
:10227000CDE91801404649463EF0EEF9CDE91A0194
:1022800021465846FFF778FF08983EF045FB044684
:102290000B980D463EF040FBCDE904010A983EF054
:1022A0003BFBCDE9020109983EF036FB2246CDE921
:1022B00000012B460749504630F0AAFA03E00649D0
:1022C000504630F0A5FA1DB0BDE8F08FD12C0408BF
:1022D000282B0408DE2C04088828040808B5FFF71A
:1022E00057FF08BD08B180E80600014BC360704786
:1022F000042B040808B517F09FF8C00F08BD0000B4
:102300002DE9F043D0F81C31D0F818110133FF2229
:10231000B3FBF2F2C2EB02229B1A8B42ADF5097DB0
:10232000044600F08B801430FFF704FE2328074694
:1023300004D184F8340204F235237DE0D4F8343338
:1023400004F54D72934279D00A286FD113F8032C0B
:102350003B2A6BD113F8022C3B2A67D113F8013CBE
:102360000D2B63D104F50D7808AB6A46354940461C
:1023700030F074FA022857D1694648A8FFF7ACFB41
:1023800004F54F79D4F840634D4666B148A906F18B
:102390001000FFF7AFFF18B9B36835461E46F4E7E3
:1023A000F3682E46F9E7A94507D005F1100148A8C2
:1023B000FFF7A0FF002818BF4D4648A816F0C4FC40
:1023C000A94531D0204B48AA03F1100E186859686E
:1023D000164603C6083373453246F7D11B8833804F
:1023E000EE2200210DF599702FF0BAFD48A902A840
:1023F000FFF772FB6B6B05F128062BB940F21D62EB
:102400001249134805F0CAFA6B6B48AA1B6808A961
:102410003046984720690F4948AB6A46BC3004F003
:10242000B7FF02A816F090FCC4F83483D4F8343314
:102430001F70D4F834330133C4F834330DF5097DFB
:10244000BDE8F083FC2C0408382B0408062D040892
:10245000222D0408272D04082DE9F0418D6804463B
:102460000F4690460E1D01205DB105F1100140465A
:10247000FFF740FF18B1AB682E461D46F4E7EB6846
:10248000FAE748B1FB689E4201D125600DE0304675
:1024900005F0B6FB054600E03546414605F1100063
:1024A000FFF728FF18B100232360666001E0256074
:1024B00060602046BDE8F08138B538200D4602F056
:1024C000D1F80446103008D0294616F0F3FF05F184
:1024D000180104F12800FFF7E7FD204638BD2DE97B
:1024E000F74304460D4691464D4530D0636933B1FC
:1024F0002669294606F11000FFF7FCFE18BB2A46A4
:1025000021466846FFF7A8FF9DE84800CEB1271D89
:1025100043B9B74206D006F110012846FFF7EAFE9C
:10252000804601E04FF0010829462046FFF7C4FF2E
:102530003B4601463246404605F064FB6369013381
:1025400063612835D0E7002EFBD0271DE1E703B0FB
:10255000BDE8F0832DE9F0470D468146103118683B
:1025600016461F46FFF7A8FF2B7803700023C360B1
:10257000E96883600446466029B102463B46484606
:10258000FFF7E8FFE060AE68A0464FF0000AD6B162
:1025900006F110013868FFF78FFF3378C0F80CA000
:1025A000F1680370C0F808A00546C8F80800C0F834
:1025B000048029B102463B464846FFF7CBFFE8605E
:1025C000B668A846E3E72046BDE8F08773B5044641
:1025D000051D0E461022002128462FF0C1FCE560A3
:1025E0002561B16800236361A1B102AB2A4643F8BB
:1025F000044D2046FFF7AEFFA06003469A680AB17B
:102600001346FBE7E360C3680BB11846FBE7736949
:1026100020616361204602B070BD00000000000030
:102620002DE9F04F2DED048BB748B84CADF50D7D7D
:1026300005F0AEFDB64AB749B34801F0C1FF4FF40B
:1026400016530093032200230221B34804F0F0FD47
:10265000AF4AB249B048002501F0B2FF15238DE81A
:10266000280013220A232721AD48FDF7FBFDA84AC5
:10267000AC49AB4801F0A4FFAB4BAC482360FEF77C
:10268000FDFC0421601800F0A1FDA848FEF7F6FC4F
:102690009F4AA749204601F093FF2B461822192193
:1026A000A448A54CFEF76EFD994AA449A14801F043
:1026B00087FF18221921A248FEF7A0FE944AA149DB
:1026C0009F4801F07DFF20469F4B40F8043B05F0FA
:1026D0000FF89E4B6360A5628D4A9D49E5622046D6
:1026E00084F8305001F06CFF1422294632A82FF0F4
:1026F00037FC32AC052132A805F06AF80FCC2DAEBC
:102700000FC62768934C41F28833A5602573254690
:1027100063602DAE904B45F8103B0FCE0FC5B4F95A
:1027200010302F60013304D13A228C498C4805F0D7
:1027300035F9E36962691A608A49754A85488A4EA3
:102740008A4FDFED8B8A9FED8B8ADFF8789201F05C
:1027500037FF8948894B43600024894B84600473A8
:1027600003606B4A6C4B8749036101F029FF864A7D
:102770008649946064235360854B13606D4B1361ED
:102780006F4B53611346147314761846604A01F078
:1027900017FF06F5887393E803007E4B3B607E4B82
:1027A0007B6007F1080383E803007C4B87ED048A14
:1027B00093ED009A7A4B87ED058AC9EE287A984600
:1027C0009C601C7332AD0DF1A00A8AE8030085E815
:1027D000030016214FF4FA7B87ED068AFCEEE77AB8
:1027E000C3ED017A6F4B48F8103B404604F060FCA3
:1027F0006B4BC5F800909C6529466B4BC5F804806F
:102800004046EB6004F08AFC2846FFF739FA664B35
:10281000C5F8009029464046C5F80480EB6004F0F6
:10282000A7FC2846FFF72CFA5D4B604983ED179A09
:1028300028221A665A4A83ED198A5D4B13601346A3
:1028400097661846324A01F0BBFE544B1F68384663
:102850003EF062F8574A584B1360894626A3D3E9E5
:1028600000235449804601F11000C1E90223FFF71B
:102870006AFC504B03F14000FFF765FC4D4B4046AE
:102880001F6749461EA3D3E900233EF099F88CAB9D
:1028900063E96C01C3E9020106931946454B03F154
:1028A0001000FFF760FC96E80F0024AE86E80F00EA
:1028B00085E80F003F4B314603F11000FFF75CFC49
:1028C00000224FF00043CAE902233A4B00260027BA
:1028D00003F140005146CAE90067FFF744FC324665
:1028E0003B46404649463DF0B9FE324B334E344FED
:1028F000C5E9000168E000BF4D158C4AEA04234099
:102900005EBA490C022B1840EC160020481000203B
:1029100098010020AD8100087C120020511D0008A4
:10292000A41100208D020008282904082C2400206E
:10293000290F00085410002014100020511C00081A
:1029400094150020691C0008D82A040838380408A7
:10295000C51C000898160020202A040838290408FD
:102960006E290408ED170008282B04081412002013
:1029700017B7D1380000000090110020A086010098
:10298000382A0408EB170008D40F0020EF170008BE
:10299000082A0408E82A04082EBAE8BE000200202B
:1029A000F80D0020782A04081C2B0408ED300008DC
:1029B000902A040870140020F42A0408501B0020F8
:1029C000601C002021170008C5E9028903F14000BE
:1029D0002946FFF7D1FBBF4BDFF89883DFF89893C8
:1029E000181D214628222FF0BBFABB4ABB49B94823
:1029F00001F0E6FD4046FFF711FB3046FFF70EFB06
:102A00003846FFF70BFBB648FFF708FBB548FFF762
:102A100005FBB548FFF702FBB44BB54AC3F804B059
:102A20009C601C73012103F114001A60C3F810802C
:102A30000793FEF773FD079BAE4A9A62AE49A64A1A
:102A4000DC62184683ED088A83ED098A01F0B8FD3F
:102A5000AA4BA74AC3F804B09C601C73202103F161
:102A600014001A601E61FEF759FDA44BA14A9A6238
:102A7000A149994ADC62184683ED088A83ED098AE8
:102A800001F09EFD9A4BC9F804B0C9F8084089F8D6
:102A90000C40102109F11400DFF8E082C9F8003081
:102AA000C9F81070FEF73AFD924B8B4A9249C9F86B
:102AB00028304846C9F82C4089ED088A89ED098AF2
:102AC00001F07EFD8A4BC8F804B0C8F8084088F8C9
:102AD0000C40C8F800302121814B894FC8F81030D4
:102AE00008F11400FEF71AFD824B7B4A8249C8F8B0
:102AF00028304046C8F82C4088ED088A88ED098ABD
:102B000001F05EFD7A4BC7F804B0BC603C733B60DB
:102B10000721744B7B4E3B6107F11400FEF7FEFC6E
:102B2000744B6D4A7449BB623846FC6287ED088A73
:102B300087ED098A01F044FD6D4BC6F804B0B4601E
:102B4000347333600621684BDFF834B2336106F129
:102B50001400FEF7E3FC674B5F4A6749B3623046F7
:102B6000F46286ED088A86ED098A01F029FD079B4B
:102B7000CBF80C30CBF82060604B634ECBF81030B4
:102B80005C4B8BF80040CBF81880CBF81C708BEDB9
:102B9000018A8BED028ACBF81490049306F10803A6
:102BA0000FCB8DE80F0041F2883196E80C005748B2
:102BB000DFF8D081564E574FFEF758FD464A56492A
:102BC000524801F0FDFC554BC8F80030544BC8F892
:102BD0000430544BB46093ED007A534B3360C7EE2E
:102BE000287A444B3361514B7361514BB361514B64
:102BF0007362384BF362504B3363347306F1380021
:102C0000FCEEE77A86F82840C6ED017A86F82A407D
:102C100086ED078A86ED088AFFF7D4F9214686F803
:102C2000C040282206F1C4002FF09AF906F1C40032
:102C300004F05EFD414BC6F8E840C6F8C430264AB1
:102C40003F49C6F8EC803046C6F8F0B001F0B8FC59
:102C5000FA237B603B4B3B60304BBC603C733B6179
:102C60001D4A244B3849BB6138467C73C7F8148031
:102C700001F0A6FC324635495046FFF733FB524679
:102C800033492846FFF71BFA3246324924A8FFF79A
:102C900029FB24AA30493CA8FFF711FA32462F49F4
:102CA0000698FFF71FFB069A2D4946A8FFF707FA7B
:102CB00032462C492C4E1CA8FFF714FB1CAA2B49AA
:102CC00050A8FFF7FCF9034A294918A8FFF70AFBA7
:102CD0005AE000BF980E0020980100201F1700083E
:102CE000701D0020C40E0020E80C0020E814002015
:102CF000A82A04087C120020591A0008680E002037
:102D0000BC16002030120020E80100203015002001
:102D10007813002060120020F9150008F80D00203B
:102D20007014002000020020F8280408D40F0020AE
:102D3000A41100200AD7233CE828040850380408CE
:102D40005D0E0008C02A0408E9170008C119000830
:102D5000302D0408091A0008352D0408F11D00085B
:102D60003A2D0408C91A0008181500203F2D040840
:102D7000551A0008401A0020601100203011002070
:102D8000541300207816002018AA7A495AA8FFF791
:102D900096F95A46784914A8FFF7A4FA14AA774975
:102DA00064A8FFF78CF9764A764910A8FFF79AFADB
:102DB00010AA75496EA8FFF782F9744A74490CA8E5
:102DC000FFF790FA0CAA734978A8FFF778F93A460A
:102DD000714908A8FFF786FA371D08AA6F4982A82B
:102DE000FFF76DF92146102238462FF0B9F87461CB
:102DF000F760376130468CAA2946FFF770FB684CB4
:102E0000684E82AF07F11800FFF746F93846283FB1
:102E100015F09AFFBA45F5D108A8FFF73DF90CA8BF
:102E2000FFF73AF910A8FFF737F914A8FFF734F9BC
:102E300018A8FFF731F91CA8FFF72EF90698FFF73D
:102E40002BF924A8FFF728F95046FFF725F9564A31
:102E50005649574801F0B4FB55492846FFF7B6FBE1
:102E6000544B5549196055491C61002259615A60FB
:102E70009A601A7303F118070C4603F217131146F0
:102E800007F8011B9F424FF000004A4AF8D1FE2389
:102E9000C2F81801C2F82441C2F81C31C2F820015E
:102EA00002F5947302F2272203F8010B93424FF0CC
:102EB0000007404CF8D1FE2304F50D78C4F82872C1
:102EC0004FF48072C4F82C323946C4F83072404650
:102ED0002FF046F8294604F54E70C4F83483FFF706
:102EE00075FB374B2069CAF80C603A4651468AE8B0
:102EF000180004F045FB5046FEF7C2FE314B206936
:102F0000CAF80C60012251468AE8180004F038FB28
:102F10005046FEF7B5FEA9682846FFF7DCF8224ABE
:102F200029492046294C01F04BFB294B2360294BB2
:102F3000636004F10C000D23A36004F0D9FB264B61
:102F4000E360264B264A276385E81800294604F1EA
:102F50000C00EE60FEF724FF2846FEF791FE124AB1
:102F60002049204601F02CFB0DF50D7DBDEC048BB6
:102F7000BDE8F08F442D0408CF1A0008492D04083D
:102F800070140020DD2200084E2D040830150020AA
:102F9000F1160008532D0408D31A0008582D040810
:102FA0007C1200201C2B0408980100200721000837
:102FB00018150020F0160020602A0408502A040882
:102FC000371C00087F1F000815210008601500202D
:102FD000F8290408B401002038380408F516000860
:102FE00017B7D138911C000810B50446FEF7B0FEA3
:102FF0002046D82104F0E2FD204610BDA0F1BC001F
:10300000F2E7A0F1C000EFE72DE9D043D0E9066771
:10301000C0E90867D1E900230446C0E90623D0E9E6
:1030200000013DF0CDFC002200233DF017FBD4E968
:10303000022380468946304639463DF0C1FC42466F
:103040004B463DF00BFBD4E9042306460F46D4E97A
:103050000A013DF0B5FC002200233DF0FFFA0246D4
:103060000B46304639463DF0F7FAC4E90A01BDE89F
:10307000D083F8B5D1E9002304460D46D0E902011A
:103080003DF09EFC06460F4604F110002946FFF76E
:10309000BBFF02460B46304639463DF0DFFA064696
:1030A0000F4604F140002946FFF7AEFF02460B46EB
:1030B000304639463DF0D2FAF8BDFFF7B1BA00000C
:1030C00010B5044B044640F8103B03F0C3FF204604
:1030D00010BD00BF782A040810B50446FFF7F0FFC2
:1030E0002046682104F06AFD204610BD10B5034B50
:1030F00003600446FFF7E4FF204610BD902A040851
:1031000010B50446FFF7F2FF2046702104F056FD8B
:10311000204610BD1FB504461022684600212EF03F
:103120001FFF284B22681A60A279012301930293A2
:10313000122A43D8DFE802F02C2B0A0C0E101214CE
:1031400016181A1C1E20222426282A0002231EE0FC
:1031500003231CE004231AE0052318E0062316E0ED
:10316000072314E0082312E0092310E00A230EE0ED
:103170000B230CE00C230AE00D2308E00E2306E0ED
:103180000F2304E0102302E0112300E01223009338
:103190000D4A0C48536823F440036946536001F01C
:1031A00087FE084801F0D0FD06480A2101F02CFEF8
:1031B00020B9044801F078FE80B200E0002004B09D
:1031C00010BD00BFE03A00200023014073B5054662
:1031D0000C460846264904F03BFB2860013004D128
:1031E00024482549362204F0D9FB2046204904F022
:1031F0004BFB431C064604D120481F493A2204F0E9
:10320000CDFBC6F3C426EF2CAE7103DC2046184973
:1032100004F0E2FA29681A4BAC8099420FD11948A0
:10322000036813BB0193184B5A6C42F480725A64C2
:103230005B6C03F480730193019B012303601348CB
:1032400000230122016043608360036183610362A4
:103250004362C3628362C360C2610363436101F07E
:10326000C9FC10B10A4804F0FBFB02B070BD00BFFE
:10327000DC2F0408CC300408E43004083F31040893
:1032800000200140801E002000380240E03A00206B
:103290005831040808B5FFF73DFF07EE900AB8EE75
:1032A000677ADFED037A67EE277A17EE900A08BD9A
:1032B0000108803910B50C4CA268A468B4F1006F05
:1032C00013460CD1131F094A53F8044F42F8044F18
:1032D000074CA242F8D1044A4FF0005393601030DB
:1032E00043F8201010BD00BF00ED00E0FCFFFF1F01
:1032F00090010020431C10B5044604D1064807493C
:10330000262204F04BFB2046002100F0F5FD04F0DE
:103310000F040120A04010BD732904086F31040878
:1033200070B504464B1C0E4621800ED0C1F303102D
:1033300000F072FD05463046FFF7DCFF05F1100393
:1033400018356060A360E560256170BDB0F90000CC
:1033500000F000BE38B5B0F90030013305460C4628
:1033600004D107480749492204F018FB012CB5F99C
:1033700000000CBF21460021BDE8384000F0BCBD74
:103380006E2904086F3104082DE9F041154E4C24D4
:1033900004FB0064074688460434002545451ED0DA
:1033A0004C237B430121F35801FA05F21A4213D052
:1033B0000D4A236B5069D4F818E001FA03F3034275
:1033C0000AD05361206838B1DEF810201342074B51
:1033D00008BF02211B68984701350434DEE7BDE8C9
:1033E000F08100BF841E0020003C01409820002096
:1033F00000200121FFF7C8BF01200146FFF7C4BF2D
:1034000002200121FFF7C0BF03200121FFF7BCBF4D
:1034100004200121FFF7B8BF05200146FFF7B4BF24
:1034200006200146FFF7B0BF2DE9F74F9B464B1C26
:1034300081460D46019266D001F00F0808F1FF3376
:10344000C1F303100E2B09D8DFE803F00C10141899
:103450001C1C1C1C1C202020202020002C4F002481
:10346000062616E02B4F0124072612E02A4F0224DD
:1034700008260EE0294F032409260AE0284F0424D9
:103480000A2606E0274F0524172602E0264F0624C9
:10349000282600F0C1FC4FFA86FA00900721284642
:1034A00000F02AFD50463946FFF704FF06F01F01E1
:1034B000012202FA01F04FEA5A131C4941F8230095
:1034C0001B4B89F8006053F828601A49A9F80C5082
:1034D0004C23634302FA06F5CA58C9F804402A434C
:1034E0000020C9F80800CA50132303FB046401EB51
:1034F0008403009ADA61C3F804B0C3F834800E4B39
:10350000019A1A6000E0084603B0BDE8F08F00BFE2
:10351000F1330008F93300080134000809340008C9
:1035200011340008193400082134000800E100E0DB
:10353000B8310408841E002098200020F8B54468A3
:10354000174A0546808900F00F03C0F3031000F509
:1035500080100126803006FA03F1800252F82370B1
:1035600001F02CFE4C210F4AB5F90C006143BE401E
:10357000535823EA0606132303FB0473565002EB49
:10358000830100244C60991D0C3302EB810102EB96
:1035900083034C605C60214600F000FDAC60F8BD28
:1035A000B8310408841E0020A2B1012905D1836826
:1035B000023B012B08D981601EE0022921D18368DA
:1035C00023F00203012B03D103238360082119E0B8
:1035D000816007E0012907D18368023B012B0DD8E8
:1035E0000223836007210DE002290AD1836823F0BA
:1035F0000203012B02D18360062103E082601146A1
:1036000000E00C21B0F90C0000F0C8BC38B5144B38
:103610001A68116911F0020F1C4607D0D368980789
:1036200004D56FF00203136104F042F923681A69AC
:10363000510714D5DA68520711D56FF00402094D0D
:103640001A615C6A2B68E31AB3F57A7F07D301F03D
:10365000C1FA034B1B6804F57A729A632C6038BD7B
:10366000783B00209C20002030B589B003A801A938
:1036700002F012FF02F0E0FE00230293234B0190C0
:103680001A6C234C42F008021A641A6C02F0080209
:103690000292029A1A6A42F008021A621A6A22F028
:1036A00008021A62069AA3F50B3323604FF0FF332A
:1036B000E360184B02B14000B0FBF3F00138002585
:1036C000606013482561A560656102F0C7FF322084
:1036D0001149FFF7EFFD114B0D484FF480225A605E
:1036E000294603F08BF80421094803F087F8236882
:1036F0000B4A596A1160126802F57A729A63DA68A5
:10370000284642F00402DA6009B030BD00380240B9
:10371000783B002040420F000D36000800E100E039
:103720009C20002010B5054B9C68204601F0CAFF84
:103730002046BDE8104002F0EDBA00BFA0200020F6
:1037400010B5054B5C68204601F0BCFF2046BDE883
:10375000104002F0DFBA00BFA020002010B5054BDA
:103760001C68204601F0AEFF2046BDE8104002F084
:10377000D1BA00BFA02000202DE9F84390F8647072
:1037800090F865607DB274B2804689462846FFF79E
:1037900091FD49462046FFF78DFD98F86830002BD3
:1037A0000CBF02230123002DA8BF05F160424FEAA0
:1037B0000313AFBF02F56142144A07F00F00D9B2FC
:1037C000AABFD9B2115482F80013002CADBF04F186
:1037D000604206F00F010D4A02F56142B5BFDBB24F
:1037E000DBB2535482F800336D090123084A07F015
:1037F0001F07640906F01F0603FA07F1B34042F8F9
:10380000251042F82430BDE8F88300BF14ED00E035
:1038100000E100E010B590F8654090F9640001F017
:10382000D7FB60B2BDE8104001F0D2BB90F8583031
:10383000012B00F1040107D004D3022B054818BF67
:10384000002002E0044800E00448054A42F8231042
:10385000704700BF253700085D3700084137000872
:10386000A0200020194A03681268C16DB2FBF1F173
:10387000142243604A439969890701D5013AFAD174
:10388000134A934208D1134B1A6A42F400121A6287
:103890001A6A22F4001216E00F4A934208D10D4B27
:1038A0001A6A42F480021A621A6A22F480020AE05A
:1038B0000A4A934208D1074B1A6A42F400021A627C
:1038C0001A6A22F400021A62704700BF0802002040
:1038D000005400400038024000580040005C0040A6
:1038E000F8B5124BC26D1B68B3FBF2F214235343BD
:1038F000426804460E46071D9169890701D5013BC0
:10390000FAD100252946A660E560384602F015FB8D
:103910004FF480436361A561256265622561E561BD
:10392000384601F0F1FCE665F8BD00BF0802002052
:10393000F0B5044685B00E4608465649154603F0D4
:1039400087FF55490746284603F082FFA4F86060C8
:103950000146A4F86250384603F05CFF2060013055
:1039600005D14E484E4940F20D1204F017F8226876
:103970004C4B9A4223D10023019384F858304A4B90
:1039800044491A6C42F400121A641B6C03F40013CD
:1039900001933046019B03F01FFF28463E4903F088
:1039A0001BFF3046012100F0D5FA2846012100F026
:1039B000D1FA1F2384F86430202384F8653022680C
:1039C0003A4B9A4224D1002302930127364B84F8C4
:1039D00058701A6C2F4942F480021A641B6C03F46D
:1039E000800302933046029B03F0F6FE28462A49E4
:1039F00003F0F2FE3046394600F0ACFA284639466C
:103A000000F0A8FA212384F86430222384F865307A
:103A10002268274B9A4224D1022384F8583000238D
:103A20000393214B1B491A6C42F400021A641B6C6D
:103A300003F4000303933046039B03F0CDFE2846B6
:103A4000154903F0C9FE3046012100F083FA2846EB
:103A5000012100F07FFA482384F86430492384F878
:103A60006530E36D0BB9134BE3652046FFF7FAFEB3
:103A70002046E16DFFF734FF002384F8693084F8B5
:103A8000683084F86A3084F86730042384F866303C
:103A900005B0F0BD602D0408582F0408F831040863
:103AA0001232040800540040003802400058004020
:103AB000005C0040A08601002DE9F3411646044653
:103AC000089A00F104081D468FB203B15EB9404662
:103AD000394601220A2301F05BFD00280CBF0020BB
:103AE0006FF001004EE090F86630042B01D0082BF7
:103AF00004D10AB1042308E0012306E0013B012BB5
:103B000005D80AB1082300E0022384F866300023B8
:103B100084F867302046FFF789FE01462046FFF70C
:103B20002BFE94F866300093404639463246ABB2DD
:103B300001F0B4FC10BB154BE66D1B68B3FBF6F649
:103B40001E235E4305FB066694F8673013F01E0FD4
:103B500005D1013E03D0012003F08DFFF4E720469C
:103B6000FFF758FE1EB194F86730082B09D02046A5
:103B7000B4F96010B4F96220FFF7DAFE6FF00100CB
:103B800000E0284602B0BDE8F08100BF0802002036
:103B90002DE9F34116460446089A00F104081D4633
:103BA0008FB203B15EB94046394601220A2301F0C3
:103BB000EFFC00280CBF00206FF001004EE090F8F1
:103BC0006630042B01D0082B04D10AB1042308E08D
:103BD000012306E0013B012B05D80AB1082300E0D0
:103BE000022384F86630002384F867302046FFF70C
:103BF0001DFE01462046FFF7BFFD94F86630009396
:103C0000404639463246ABB201F0ECFB10BB154BD7
:103C1000E66D1B68B3FBF6F61E235E4305FB0666E6
:103C200094F8673013F01E0F05D1013E03D0012038
:103C300003F021FFF4E72046FFF7ECFD1EB194F8F6
:103C40006730082B09D02046B4F96010B4F962201F
:103C5000FFF76EFE6FF0010000E0284602B0BDE8FD
:103C6000F08100BF08020020436F07B5ABB1D0F868
:103C7000843093B190F86C200AB1082200E002224F
:103C800080F8622090F86220B0F868100092D0F8B6
:103C900080209BB201F002FC02E0082380F8633030
:103CA00003B05DF804FB082380F86330704738B533
:103CB000051D04460261284601F026FB2046FFF759
:103CC000B5FD01462046FFF757FD2846BDE83840C0
:103CD00001F048BC70B590F864500446061F05B169
:103CE000C568B4F95C10B4F95E203046FFF720FED9
:103CF00000210B4630462A46FFF7D9FF022384F8FD
:103D0000633070BD19B9012380F86530704701290F
:103D100008BF80F866107047002380F86530704750
:103D2000002380F86630704701F01CBC10B50446D3
:103D300050F80429536823F4E0635360FFF76AFDE9
:103D4000022384F8633010BD7FB503F041FE01A863
:103D5000052103F03DFDBDF90430013304D10E48C7
:103D60000E493A2203F01AFE049B029A1A6096202A
:103D700003F08CFEBDF90430013304D10648074935
:103D80003A2203F00BFE029B059A1B041360962057
:103D900003F07CFEDFE700BF6E29040859320408F7
:103DA00030B50546A1B00C4603F012FE2946684620
:103DB000224635F085FB051E03DC03F033FE21B0FF
:103DC00030BD094B1B6823B908480221032200F0CB
:103DD0008FFD00241DF804100448013400F0B4FEE7
:103DE000AC42F7D1E9E700BF00240020283B0020C7
:103DF0000FB407B504A951F8040B0191FFF7D0FFE8
:103E000003B05DF804EB04B0704708B502F08CFE17
:103E1000BDE8084000F0C6BE7FB50023072853D890
:103E2000DFE800F004111E2B3852524500932A4B54
:103E30002A481A6B42F001021A631B6B03F001035C
:103E40000093009B44E00193234B25481A6B42F0FA
:103E500002021A631B6B03F002030193019B37E01C
:103E600002931D4B1F481A6B42F004021A631B6B2E
:103E700003F004030293029B2AE00393164B1A48B3
:103E80001A6B42F008021A631B6B03F008030393DA
:103E9000039B1DE00493104B14481A6B42F0100270
:103EA0001A631B6B03F010030493049B10E005934B
:103EB000094B0F481A6B42F080021A631B6B03F028
:103EC00080030593059B03E00A4803F0C9FD002029
:103ED00007B05DF804FB00BF00380240000002405C
:103EE0000004024000080240000C024000100240A2
:103EF000001C0240BC32040830B5431C87B00546A4
:103F00000C4604D110481149812203F047FDC5F346
:103F10000310FFF781FF05F00F050123AB4004F00C
:103F20000F0201930A4B53F822300293C4F3021399
:103F30000393C4F3C314032301A90493059401F06C
:103F40006BF807B030BD00BF73290408DD320408E8
:103F500034330408431C70B506460C4604D10D48A2
:103F60000D49A62203F01AFDC6F30310FFF754FF14
:103F700006F00F05C1686B0003229A4021EA020295
:103F8000032CC260C26828BF00249C401443C46054
:103F900070BD00BF73290408DD32040838B505463A
:103FA000C0F303100C46FFF737FF05F00F02C3689C
:103FB0005200D34003F0030304F00F01284641EA06
:103FC0000311BDE83840FFF797BF000030B507EE9A
:103FD000101A284B02681A60B5EEC07AF1EE10FA9A
:103FE00089B0054609D4F7EE007AB4EE677AF1EEAF
:103FF00010FAC8BFB0EE677A01E09FED1F7AD5EDE9
:10400000037AF8EE677A602267EE877A0192FCEE17
:10401000E77AAA68C5ED047A17EE903AB3FBF2F39B
:1040200002930023039304930593069307932B7D38
:10403000013B032B1CD8DFE803F00802040604242C
:1040400004E0082402E00C2400E00024094801A94F
:10405000224602F063FB10B1084803F001FD6B7DBE
:104060000448214613B102F001FC01E002F0DCFB40
:1040700009B030BDB42000200000000068330408FF
:10408000C368ABB190ED047A07EE903AB8EE477A88
:10409000F8EE677AC7EE277AB7EE007AF4EEC77AC1
:1040A000F1EE10FAD4BF17EE900A17EE100A70471F
:1040B000002070472DE9F041D0F80080414C86B0D7
:1040C00005460E46C4F80080FFF7DAFFD8F8202036
:1040D00041F21113134007465BB9D8F8202040F293
:1040E000444313402BB9D8F8003023F00103C8F83B
:1040F000003001A8694602F0CFF92B68324A93429A
:104100001BD00BD8A2F50062934216D002F5806254
:10411000934212D0B3F1804F51D10EE02B4A93421B
:1041200010D002D8A2F5804204E0294A934209D077
:1041300002F58062934205D041E002F07DF90090E3
:10414000049803E002F090F900900598009A214944
:10415000B6F5803FACBF4FF4FA730123AB60AB6898
:1041600000B15200B2FBF1F212FB03F39BB2013B30
:1041700063606368B3F5803F02D3174803F070FCB7
:10418000AA68731EB3FBF2F3B3F5803FE36002D37A
:10419000124803F065FC00230A482361A36002F083
:1041A00077FA10B10E4803F05BFCEE602846394602
:1041B000FFF70CFF2268136843F00103136006B099
:1041C000BDE8F081B4200020000C00400040014018
:1041D0000044014040420F007F3304089B33040831
:1041E0006833040870B5044688B008460E46554941
:1041F00003F02EFB2060013004D1534853492D2297
:1042000003F0CCFB30464F4903F03EFB431C054610
:1042100004D14F484D49312203F0C0FBC5F3C423FC
:104220004C4A23752368C5F30045934265754FF0EA
:1042300000020BD10092484A516C41F001015164D7
:10424000526C02F001020092009A3BE0B3F1804F01
:104250000BD10192404A116C41F001011164126CC2
:1042600002F001020192019A2CE03C498B420BD1F1
:104270000292394A116C41F002011164126C02F091
:1042800002020292029A2DE035498B420BD1039231
:10429000314A116C41F004011164126C02F0040205
:1042A0000392039A2EE02F498B420BD12A4B0492A2
:1042B0001A6C42F008021A641B6C03F008030493A2
:1042C000049B2EE0284A93420CD100230593224BF5
:1042D0005A6C42F480325A645B6C03F48033059369
:1042E000059B1EE0214A93420CD1002306931A4BF2
:1042F0005A6C42F400325A645B6C03F40033069348
:10430000069B0EE01A4A93420BD100230793124BEF
:104310005A6C42F480225A645B6C03F48023079346
:10432000079B0849304603F057FA0023E3602361F6
:104330000123A680A360204644F62061FFF7BAFE61
:1043400008B070BDF02D0408B4330408CC33040861
:104350003F310408000001400038024000040040E2
:1043600000080040000C00400040014000440140B3
:10437000004801404FF47A735943FFF79BBE7047E2
:104380007047036870B504465B6A98472368204607
:104390001B69002101229847431C0646236804D16B
:1043A00020469B6A9847304670BD1B692046002115
:1043B0000222984723680546314600221B692046A1
:1043C0009847236820469B6A9847284670BD00009E
:1043D00008B5084B1B685BB907480221032200F0AF
:1043E00087FA05484FF41651BDE8084000F02ABB93
:1043F00008BD00BF00240020283B002002284FF009
:10440000000309DDC21E074951F8220041F822309D
:1044100020B103685B681847184670474FF0FF30BB
:10442000704700BFFC200020022870B50C461546DE
:104430000FDC0E4B1B680BB9FFF7CAFF6619B442BD
:1044400005D00B4814F8011B00F07EFBF7E7284667
:1044500070BD0338074B53F8200020B10368BDE856
:1044600070401B6818474FF0FF3070BD00240020DB
:10447000283B0020FC200020022810B50C460ADC56
:104480000B4B1B680BB9FFF7A3FF0A4800F040FB7A
:104490002070012010BD0338074B53F8200020B1D5
:1044A0000368BDE810409B6818474FF0FF3010BD0F
:1044B00000240020283B0020FC200020022807DDEB
:1044C0000338064B53F8200020B10368DB68184717
:1044D000012070474FF0FF30704700BFFC200020E4
:1044E000022807DD0338064B53F8200020B103688B
:1044F0001B691847002070474FF0FF30704700BF1E
:10450000FC200020022808B504D84FF400534B606B
:10451000002008BD2BF03AFE092303604FF0FF3066
:1045200008BD0000014803F09BBA00BF3434040802
:1045300008B5012000F046F8704708B5FFF765FCA4
:10454000FFF7FAFF08BD704708B5FFF7FCFFBDE8AD
:104550000840FDF7D9BC00000C4A136810B5184498
:10456000EFF30881884205D3094B0C221A604FF003
:10457000FF3010BD0749096821B1074C2468214468
:104580008842F1D21060184610BD00BF040200201E
:10459000B43B0020F8200020FC210020074C08B587
:1045A0002368054698682BF0FBFE2368D8682BF03B
:1045B000F7FE0DB1FFF7C8FBFEE700BFC8060020FD
:1045C0000120704708B5FFF7E9FF0120704700217F
:1045D0002EF024B82BF0F6BE704770477047704736
:1045E00008B5FFF7F9FF08BD08B5FFF7F6FF08BDEE
:1045F00008B5FFF7F3FF08BD08B5FFF7F0FF08BDEA
:1046000010B5037803F00303012B04460CD02BB143
:104610000648074940F2213203F0C0F9237843F0FD
:1046200002032370012010BD002010BD3E34040899
:104630006434040810B5037803F00303022B044626
:1046400005D00648064940F2293203F0A7F923783D
:1046500023F0030343F00103237010BDA4340408C6
:104660006434040810B52CF0C1FF044610B90248A8
:1046700003F0F6F9204610BDE334040810B52CF021
:10468000B5FF044610B9024803F0EAF9204610BD10
:104690000035040808B12CF0B1BF704708B12CF008
:1046A000ADBF70470B4B10B5036004460A48FCF7DA
:1046B000E5FC0023094A52F82310A14204BF00215F
:1046C00042F823100133402BF4D10348FCF7D6FC09
:1046D000204610BD80350408F0200020FC2000207A
:1046E0002DE9F3418846364905462EF02DF904465A
:1046F00010B9FFF76DFE5EE0284632492EF024F92E
:1047000018B9FFF765FE012455E028462E492EF022
:104710001BF918B9FFF75CFE02244CE02B48FCF7AC
:10472000ADFC00242A4E56F82430374633B101340C
:10473000402CF7D12548FCF7A1FC3AE04FF0FF33BD
:10474000224846F82430FCF799FC2B783A2B06D106
:10475000284620496A462EF081F8009824E06846F1
:10476000294602F03BFB684602F07AFB10B946F896
:1047700024001EE0684602F061FB18B1684602F0B2
:1047800066FB11E0684602F052FB054610B946F898
:1047900024000EE0036868469E6802F03DFB28F4A2
:1047A000803201462846B04747F8240008B1033458
:1047B00001E04FF0FF34204602B0BDE8F08100BFB9
:1047C00025340408703504082C340408F020002037
:1047D000FC2000206C3504084309203300F01F0042
:1047E00004490122824041F82320BFF34F8FBFF3D9
:1047F0006F8F704700E100E042681849034692015C
:1048000010B588181C688C509A6842600246D968B6
:1048100042F8081F196951605969916000F110014F
:104820001A6A8A600022C261C2848284C28582853B
:10483000B3F91A20013201D1082305E0B3F9183089
:1048400001330CBF04230C234B6002F03EF920B16E
:104850000348BDE8104003F003B910BD002200205A
:10486000AC3504081A4BF7B5074653F820001E462E
:1048700000282BD0174CBD0163591A6852060AD57F
:10488000DB68590607D5144B01211B68984763590B
:104890006FF040021A6063591A6892060DD5DB6802
:1048A00098060AD50C4B56F827001B68002198473C
:1048B000084B5B596FF020021A6063591A681107A0
:1048C00004D55A69D20744BF5B68019303B0F0BDB9
:1048D0000424002000220020242400200020FFF7D0
:1048E000C1BF0120FFF7BEBF0520FFF7BBBF00001F
:1048F000F0B5044685B008460E464949154602F013
:10490000A7FF48490746284602F0A2FF014638465D
:1049100002F080FF2060013004D143484349662201
:1049200003F03CF82368424A93421DD002F58062AE
:1049300093422FD0A2F55042934241D13D4B1A6A87
:1049400042F400321A621A6A22F400321A62002219
:1049500002921A6C42F400321A641B6C03F40033A6
:104960000293029B01232AE0324B5A6A42F0100262
:104970005A625A6A002122F010025A6201915A6C5E
:1049800042F010025A645B6C616003F01003019303
:10499000019B15E0274B5A6A42F020025A625A6A7C
:1049A00022F020025A62002203925A6C42F0200246
:1049B0005A645B6C03F020030393039B052363603D
:1049C0003046174902F008FF2846164902F004FF56
:1049D000721C03D030460121FFF7BCFA6B1C03D0D8
:1049E00028460121FFF7B6FA4FF41653A3600023BF
:1049F000E360236163612362268365832046FFF7BA
:104A0000FBFE22680C4B9A4207D10C4B0C4801224A
:104A10001A6021464C222DF0A5F905B0F0BD00BF6B
:104A2000942F0408A82D0408C4350408E0350408B0
:104A300000100140003802400044004000240020E3
:104A4000283B00208160FFF7D7BE0000034B1960B0
:104A50004168034B43F82120704700BF2424002005
:104A60000424002038B54368012B0D4605D0052BE2
:104A700006D043B91C49252407E01C49262404E03C
:104A80001B49472401E000210C461A489B01AAB1AA
:104A9000C258D36815B943F0200301E043F0400346
:104AA00065B2D3602846FEF705FC6D0904F00704E3
:104AB0000123114AA34042F8253038BDC358DA68B3
:104AC00035B922F02002DA60DB681A0606D538BD57
:104AD00022F04002DA60DB689B0604D42046BDE881
:104AE0003840FFF779BE38BDDD480008E3480008CC
:104AF000E94800080022002000E100E04368034A82
:104B00009B01D3581868C0F3401070470022002062
:104B100038B5446805462846FFF7F0FF0028FAD06C
:104B2000A401034B1B595868C0F3080038BD00BFEF
:104B3000002200204368034A9B01D3581868C0F341
:104B4000C01070470022002070B5456806460C462C
:104B50003046FFF7EFFF0028FAD0AD01024B5B595A
:104B6000C4F308045C6070BD00220020DFF820D090
:104B7000002103E0074B5B58435004310648074BC4
:104B800042189A42F6D302F0A9F8FBF731FB7047BE
:104B900000800120CCB8040898010020C40C00203B
:104BA000FEE7000008B50A4B1A6842F400721A606A
:104BB0001A6842F480621A601A6842F480721A60BD
:104BC0000F20FEF751FD00F026FA002008BD00BFBF
:104BD000003C0240024A136801331360704700BF73
:104BE000743B0020014B1868704700BF743B0020E5
:104BF0007047000010B50446002800F09E80036C4A
:104C000023B9436480F83C30FFF7F2FF236CDB06E6
:104C100000F18E80236C23F4885323F0020343F0C9
:104C200002032364464B5A6822F440325A605968A2
:104C300062680A435A60236821695A6822F48072C4
:104C40005A605A6842EA01225A605A6822F0407259
:104C50005A605968A2680A435A609A6822F400624E
:104C60009A609968E2680A439A603649A26A8A4261
:104C70000ED0996821F07061996099680A439A6032
:104C80009A6822F040529A609968E26A0A4306E004
:104C90009A6822F070629A609A6822F040529A6094
:104CA0009A68A16922F002029A609A6842EA410277
:104CB0009A60226A9AB15A6842F400625A605A684D
:104CC00022F460425A604FF4604191FAA1F1626AA5
:104CD0005868B1FA81F1013A8A40024302E05A6809
:104CE00022F400625A60DA6A22F47002DA62E2693F
:104CF000D96A013A41EA0252DA629A68216B22F4D7
:104D000000729A609A6842EA41229A609A686169E0
:104D100022F480629A609A68002042EA81229A60B6
:104D20006064236C23F0030343F00103236400E079
:104D30000120002384F83C3010BD012010BD00BFCD
:104D4000002301400100000F82B00023019390F87E
:104D50003C30012B4DD0012380F83C3003689A6829
:104D6000D10703D59A68D20712D437E09A6822494E
:104D700042F001029A60214A1268B2FBF1F202EBA2
:104D800042020192019A002AECD0019A013AF8E716
:104D9000026C22F4E06222F0010242F480720264AA
:104DA0005A68510541BF026C22F4405242F48052CD
:104DB0000264026C12F480521CBF426C22F00602A4
:104DC0004264002280F83C206FF022021A600C4AF4
:104DD0005268D20604D00B4A934201D0002009E069
:104DE000986810F04050F9D19A6842F080429A6079
:104DF00000E0022002B0704740420F00080200208D
:104E0000002301400020014003689A6870B55605F0
:104E100004460D460BD59B68D80508D5236C43F096
:104E200020032364002384F83C30012070BDFFF789
:104E3000D9FE064623681A68920711D4691CFAD075
:104E400045B9236C43F004032364002384F83C3009
:104E5000032070BDFFF7C6FE801BA842EAD9F0E729
:104E60006FF012021A60226C42F4007222649A6897
:104E700012F0405F01D0002070BDA269002AFAD173
:104E8000DA6A12F4700F02D09B685B05F3D4236CCE
:104E900023F480732364206C10F48050EBD1236CD6
:104EA00043F00103236470BD0368D86C70470000B1
:104EB000F7B50023019390F83C30012B63D00D68C7
:104EC0008A680123092D80F83C30ACB203680FD901
:104ED00004EB4406DF681E3E4FF0070E0EFA06FE96
:104EE00027EA0E07DF60DF68B2403A43DA600DE080
:104EF0001F6905EB450E072606FA0EF627EA060699
:104F00001E611E6902FA0EF232431A614A68062ACD
:104F10004FEA82010CD80A445E6B053A1F2191408A
:104F200026EA01015963596B94400C435C631AE013
:104F30000C2A0CD80A441E6B233A1F21914026EA02
:104F400001011963196B94400C431C630BE00A4484
:104F5000DE6A413A1F21914026EA0101D962D96AED
:104F600094400C43DC62164A934204D0002380F83C
:104F70003C30184622E0122D07D1124A536843F400
:104F80008003536001E0022018E0A5F11003012B1B
:104F9000ECD80C4A5368102D43F400035360E5D15C
:104FA000094B0A4A1B68B3FBF2F20A2353430193ED
:104FB000019B002BDAD0019B013BF8E703B0F0BD69
:104FC00000200140002301400802002040420F0061
:104FD0004309203300F01F0004490122824041F8B8
:104FE0002320BFF34F8FBFF36F8F704700E100E0C6
:104FF00090F83530022B01BF0523026880F8353068
:10500000136815BF802323F001034365136014BFA9
:1050100001200020704770472DE9F3410F680022FE
:105020000123934003EA07059D4240F0B9804C6894
:1050300024F0100CBCF1020F14D14FEAD20E00EB99
:105040008E0E02F00706DEF82030B6004FF00F0893
:1050500008FA06F823EA08080B69B34048EA030394
:10506000CEF820304FEA420E0323066803FA0EF30F
:10507000DB4303EA060804F0030606FA0EF60CF119
:10508000FF3C48EA0606BCF1010F066011D88668AD
:1050900003EA060CCE6806FA0EF64CEA06068660AF
:1050A000466826EA050CC4F3001696404CEA06064C
:1050B0004660C66803EA060C8B6803FA0EF64CEAF3
:1050C0000603C360E3006BD5394E00230193D6F885
:1050D00044E04EF4804EC6F844E0766C06F4804618
:1050E0000196019E22F0030606F1804606F59C36E5
:1050F00002F0030CD6F808804FEA8C0C4FF00F0E2C
:105100000EFA0CFE28EA0E0EDFF8AC80404519D0EE
:1051100003F1804303F5013398420ED003F5806319
:1051200098420CD003F5806398420AD003F580635F
:1051300098420CBF0423052304E0012302E002236C
:1051400000E0032303FA0CF343EA0E03DFF864E004
:10515000B360DEF80030EE4314F4803F14BF2B43FD
:105160003340CEF80030DEF80430DFF848E014F4C5
:10517000003F14BF2B433340CEF80430DEF8083034
:1051800014F4801F14BF2B433340CEF80830DEF8F0
:105190000C30A40254BF06EA03051D43054BDD6035
:1051A0000132102A7FF43CAF02B0BDE8F08100BFAD
:1051B00000380240003C0140000002402DE9F0416F
:1051C00000224FF0010C0CFA02F303EA010E9E4597
:1051D0005FD1032302FA0CF5046803FA05F5ED43E9
:1051E00022FA03F72C4000EB8707046002F007085F
:1051F0003C6A0F264FEA880806FA08F824EA0804F1
:105200003C628768DFF89C802F40876047686FEAC0
:105210000E0427404760C7683D40C56022F0030583
:1052200005F1804505F59C3502EA0307D5F808E04D
:10523000BF00BE40404506EA0E0E11D008F580685A
:1052400040450FD0DFF860C060450DD00CF5806C94
:1052500060450AD0114B98420CBF0423052304E09B
:10526000002302E0634600E00223BB409E4510D1CC
:10527000AB6823EA06060A4BAE601D6825401D6038
:105280005D6825405D609D6825409D60DD682C401F
:10529000DC600132102A94D1BDE8F0810010024098
:1052A000003C014000000240000802402DE9F843A4
:1052B000089C05460E4690461F46C1F307492B68D9
:1052C000B9F1010F0CBF58699869C04380B23042F0
:1052D0000CBF01230023434512D17B1CEFD04FB9F3
:1052E000002320222B6385F83C3085F83D200320E5
:1052F000BDE8F883FFF776FC001BB842DFD9EFE783
:105300000020BDE8F883704770B50446002863D0DC
:1053100090F83D3003F0FF021BB980F83C20FFF706
:10532000F2FF22682D4D242384F83D30136823F0CA
:105330000103136001F080F8636822682849B0FB1C
:10534000F1F1AB422E4688BF4FF49675516082BF93
:1053500069434FF47A75B1FBF5F1B34201F10101F4
:10536000116208D85B00B0FBF3F0C0F30B03032B12
:1053700098BF042016E0A16849B903EB4303B0FBD2
:10538000F3F0C0F30B0363B140F400400AE01921CD
:105390004B43B0FBF3F0C0F30B0313B140F44040B8
:1053A00000E00120216AE369D0610B431360E168EA
:1053B00023690B439360A16963690B43D36013684E
:1053C00043F00103136000202023206484F83D3063
:1053D000206384F83E0070BD012070BDA0860100EE
:1053E00040420F0073B50024019490F83D40069DA3
:1053F000202C01D002204DE0042D06D0012D04D038
:1054000090F83C40012C1AD1F4E7234C46F2A81640
:105410002468B4FBF6F6192474430194019C661EBB
:1054200001963CB92023046380F83C4080F83D306D
:1054300003202FE00468A469A407EFD4E0E7012467
:1054400080F83C400468266826F400662660212621
:1054500080F83D60102680F83E6000260664438593
:10546000C56241640385036B4262122B00D04BB9C5
:10547000042D03D0012D01D0122B03D1236843F456
:10548000807323606268002342F4E06280F83C305D
:105490006260184602B070BD0802002073B5002497
:1054A000019490F83D40069D202C01D0022054E04C
:1054B000042D06D0012D04D090F83C40012C1AD1C7
:1054C000F4E7274C46F2A8162468B4FBF6F6192434
:1054D00074430194019C661E01963CB92023046329
:1054E00080F83C4080F83D30032036E00468A46931
:1054F000A407EFD4E0E7012480F83C400468266864
:1055000026F400662660222680F83D60102680F88A
:105510003E60002606644385C56241640385036BD3
:105520004262112B00D083B9042D06D0012D04D086
:1055300015F5803F01D0112B07D1236843F4806318
:105540002360236843F4807323606268002342F47D
:10555000E06280F83C306260184602B070BD00BF67
:105560000802002090F83D30202B01BF282380F84E
:105570003D3003681A6801BF42F480621A605A68BD
:1055800042F4407206BF00205A60022070470000BB
:105590002DE9FF4704461F4689469046FFF722FB48
:1055A00094F83D30202B064601D0022081E0009087
:1055B0004149204601221923FFF778FE0028F4D143
:1055C00094F83C30012BF0D02268012384F83C3061
:1055D000136823F400631360242384F83D30374BB1
:1055E00020640546E3622268136843F48073136005
:1055F000204600964FF0011100223B46FFF756FE71
:1056000008B1032055E0236809F0FE021A61FFF794
:10561000E9FA0646236859695A6994F83D30C1F39E
:105620004001C2F38022DBB269B962B9A02B0AD073
:105630001FB9A02384F83D30ECE7FFF7D3FA801BB5
:10564000B842F6D8E6E723684FF0200A84F83DA078
:105650005A6912F0020F1A6842F400721A6014D0EC
:10566000002203925A6903929B690393039B00965D
:105670002046114901221923FFF718FE0028C0D146
:1056800084F83DA084F83C0013E06FF480625A6116
:1056900020460096084901221923FFF707FE00283B
:1056A000AFD1013545459ED384F83C0084F83DA038
:1056B000012004B0BDE8F087020010000000FFFFE9
:1056C000704770470368F0B59D6959695A6890F84A
:1056D0003E40E4B2102C8BB002D0402C40F03F8210
:1056E00011F0011F2FD097052DD590F83E40402C8A
:1056F00005D1046D0CB9446C0AE0446C0BE00469FC
:10570000B4F5804F0AD190F83D40212C446C02D171
:1057100004F0FE0415E044F001041AE0046D34B90D
:10572000446C04F44074E41144F0F00409E0046DA6
:10573000012C40F0A580446C04F44074E41144F062
:10574000F1041C619CE09C4C0C4024B1960502D5F0
:10575000446CE4B2F5E7994C0C40002C00F09080CA
:10576000940540F18D8090F83E40C66AD0F830E054
:1057700090F83D70222FE4B27BD1076D47B9402CE1
:1057800006D101975C6901949C690194019C77E0C2
:10579000046D84B90769B7F5404F0CD102945C6978
:1057A00002949C690294029C1C6844F480741C60FE
:1057B000046D01345BE0448DA4B234B903945C6998
:1057C00003949C690394039C26E0448DA4B2012CAD
:1057D00027D1042E15D0082E13D0BEF1120F10D0F1
:1057E000C46A022C1C6814BF24F4806444F48064EE
:1057F0001C60002404945C6904949C690494049CD7
:1058000034E01C6824F480641C60002405945C6906
:1058100005949C690594059C1C6844F400741C6004
:1058200024E0448DA4B2022C15D1C46A022C1C6859
:105830001DBF24F480641C601C6844F4806418BF9D
:1058400044F400641C60002406945C6906949C691E
:105850000694069C0AE01C6844F480641C600024E2
:1058600007945C6907949C690794079C002404656D
:1058700006E0002408945C6908949C690894089CDC
:105880004F4E504C2E400C40002E00F0B5804E4D37
:105890000D40002D64D0510562D5002C60D190F8E8
:1058A0003D20058D90F83E10C46AD2B2C9B2D5B978
:1058B000212A1AD1042C00F08980082C00F086805F
:1058C00014F5803F00F082805A6822F4E0625A604A
:1058D00090F83D3090F83E2003F003031343036338
:1058E00080F83E5062E0212A05D0402940F00D8228
:1058F000222A40F00A82428D92B2002A00F099805A
:1059000090F83E20402A40F0AF81026D7AB9C26C17
:10591000012A826C04D1D2B21A61036D023304E011
:10592000C2F307221A61036D01330365EDE1026DD5
:10593000012A02D1826CD2B2F4E7026D022A40F051
:10594000E48190F83D20222A04D11A6842F4807242
:105950001A60DAE190F83D20212A40F0D68183E1F7
:10596000002C00F0D281970540F1CF81C16A90F8F8
:105970003D20212A40F0C981428D92B2002A40F098
:105980007381042922D0082920D011F5803F1DD031
:10599000596821F4E061596090F83D3090F83E106C
:1059A00003F003030B43036380F83E20202380F8B9
:1059B0003D30FEF759F9A8E108000100020001009E
:1059C0000400100004000100800001005A6822F465
:1059D000E0625A601A6842F400721A6000232022C2
:1059E000036380F83D2090F83E2080F83E30402A46
:1059F000DFD1FFF765FE88E19E4D0D40002D44D0BC
:105A0000560542D5002C40D190F83D20222A40F086
:105A10007C81428D92B2032A00F26E81023A012A01
:105A20001A6822F480621A6008D81A6842F4006288
:105A30001A605A6822F480625A6066E1C26A022AD9
:105A400002BF1A6842F400621A605A6822F4E062E7
:105A50005A60426A1B69511C41621370438D013BBD
:105A60009BB2438590F83D3090F83E2003F003034D
:105A700013430363202380F83D3090F83E30402BE1
:105A80004FF0000380F83E305DE0002C00F03D81D7
:105A9000950540F13A81C26A418D89B20329416A74
:105AA0000BD1042A04D0082A02D012F5803F51D12C
:105AB0001A6822F480621A604CE0448DA4B2022C71
:105AC00048D1042A18D0082A16D012F5803F13D0E6
:105AD0001C68013A24F480641C60012A9EBF1A6885
