:020000040800F2
:1000000000800120914B0008C54B0008C54B00083B
:10001000C54B0008C54B0008C54B00080000000098
:10002000000000000000000000000000C54B0008B8
:10003000C54B000800000000C54B0008C54B000878
:10004000C54B0008C54B0008C54B0008C54B000850
:10005000C54B0008C54B0008C54B0008C54B000840
:10006000C54B0008C54B0008C54B0008C54B000830
:10007000C54B0008C54B0008C54B0008C54B000820
:10008000C54B0008C54B0008C54B00080000000028
:10009000000000000000000000000000C54B000848
:1000A000C54B0008C54B0008C54B0008C54B0008F0
:1000B000C54B0008C54B0008C54B0008C54B0008E0
:1000C000C54B0008C54B0008C54B0008C54B0008D0
:1000D000C54B0008C54B0008C54B000800000000D8
:1000E000C54B0008C54B0008C54B000800000000C8
:1000F000000000000000000000000000C54B0008E8
:1001000000000000C54B0008C54B0008C54B0008A7
:1001100000000000000000000000000000000000DF
:10012000C54B0008C54B0008C54B0008C54B00086F
:10013000C54B0008000000000000000000000000A7
:10014000000000000000000000000000C54B000897
:10015000C54B0008C54B0008C54B0008C54B00083F
:10016000C54B0008C54B000800000000000000005F
:10017000000000000000000000000000000000007F
:1001800000000000C54B0008000000000000000057
:10019000C54B000810B5054C237833B9044B13B197
:1001A0000448AFF300800123237010BDC80C002069
:1001B0000000000024870408084B10B51BB1084953
:1001C0000848AFF300800848036803B910BD074B27
:1001D000002BFBD0BDE81040184700BF0000000016
:1001E000CC0C002024870408C00C00200000000074
:1001F000154B002B08BF134B9D46A3F5803A0021F9
:100200008B460F461348144A121A31F0C1FE0F4BA9
:10021000002B00D098470E4B002B00D098470020B1
:10022000002104000D000D48002802D00C4804F005
:10023000DEF931F083F82000290004F097F904F08A
:10024000D3F900BF0000080000800120000000007A
:100250005F450008C80C0020B83B0020EF450008AF
:100260000000000073B5044615461E4600F0ECFD84
:10027000BDF91C3000933246BDF91830294604F10F
:100280001C0000F0F9FE204602B070BD10B5044617
:100290001C3000F066FE204600F0F6FD204610BD42
:1002A00007EE901AB3EE097AF4EEC77AF1EE10FA7F
:1002B00008D8BBEE097AF4EEC77AF1EE10FA01DB4A
:1002C00000F0E6BD7047000006EE901ADFED047AFC
:1002D00086EEA77A1C3017EE101A00F069BE00BF38
:1002E0000000C8421C3000F08DBE000006EE901ADF
:1002F000DFED047A86EEA77A1C3017EE101A00F0B4
:1003000059BE00BF0000C84270B50C46002304F877
:10031000043B064605460FCC0FC50FCC0FC594E82D
:10032000030085E80300304670BD000070B592B050
:1003300010AB07930FAB06930EAB05930DAB049375
:100340000CAB03930BAB02930AAB019309AB009385
:10035000044615460846012608AB11AA164911960F
:1003600032F094FA0A2820D1DDED107AF5EEC07A49
:10037000F1EE10FA19DD119BB34216D83340237108
:10038000089BA360099BE3600A9B23610B9B63614D
:100390000C9BA3610D9BE3610E9B23620F9B636229
:1003A000C4ED0A7A2670054900E00549284632F076
:1003B00047FA12B070BD00BFA4280408C228040880
:1003C000C82804087047704770477047704710B5D9
:1003D0001421044607F004FC204610BD10B51C2172
:1003E000044607F0FDFB204610BD10B5242104464D
:1003F00007F0F6FB204610BD10B57821044607F043
:10040000EFFB204610BD10B59421044607F0E8FB31
:10041000204610BD91ED007AD0ED007A77EEC77AD4
:10042000C0ED007A91ED017AD0ED017A77EEC77ACE
:10043000C0ED017A704700002DE9F04F444B0C46A7
:1004400089B00546202240F8043B002131F0A0FD90
:10045000271DE3680693002623690793394606A8FB
:10046000FFF7D8FF079A0699009602A8394B40F08B
:1004700027FE394BE1681A685B680492059322698C
:10048000009602A84FF08043DDF808B0DDF80CA01C
:1004900040F016FE029B0493039B0593636806934A
:1004A00004A9A368079306A8FFF7B4FFD4ED066A72
:1004B000DDED077A94ED057A009676EEA77A02A82C
:1004C00017EE902ADDED067A224B77EE277A17EEAB
:1004D000901A40F0F5FDE368069304F114012369D6
:1004E000DDF80890DDF80C80079306A8FFF792FF6F
:1004F000079A184B0699009602A840F0E1FD94ED8A
:10050000087ADDED037ADDED026A77EE877A94ED05
:10051000077ACDED057A37EE267A394604A88DEDB7
:10052000047AFFF777FFA3686268AB60049BEB6116
:10053000059B6A602846C5F80CB0C5F810A0C5F840
:100540001490C5F818802B6209B0BDE8F08F00BF89
:10055000E028040800004040182904082DE9F04371
:100560008FB00361169B4361179B8361189BC36126
:10057000199B017103621C991A9BC0F88010436299
:100580001D991B9BC0F884100446C260836200F171
:10059000080106AE05A8FFF74FFF0FCE04F13005A6
:1005A0000FC596E80F0085E80F00182200210DEB1B
:1005B000020031F0EDFC274605AD00264FF00009A2
:1005C000013607EE906AF8EEE77ACDF80090FA6B04
:1005D000B96B17EE903A02A840F072FD039B029AA5
:1005E0006A60032E4FF0000845F8083F07F108073E
:1005F000E6D106AD0FCD04F154060FC695E8030011
:1006000086E803004FF07E53226EE16DCDF8008046
:1006100002A840F055FDA26E616ECDF8008002A8E0
:100620004FF08043029E039D40F04AFDD4ED206AC6
:1006300094ED217A029BA367C6EE877A039BE3675A
:1006400026676567FDEEE77A17EE900A40F072F9CB
:1006500002460B460020074940F0FCFA40F0C8FC77
:100660000123C4F88800C4F88C8084F890300FB05F
:10067000BDE8F0830000F03F2DE9F04FD1E90067BD
:1006800085B0002400250190884691462B462246DD
:100690003046394640F01CFC30B122462B46D8E9A2
:1006A000020140F015FCE8B998ED027B002400251A
:1006B00022462B4651EC170B8DED027B40F008FCD7
:1006C000B0B122462B463046394640F029FC78B17D
:1006D000D9E90023304639462CF02EFF019BC3E9AF
:1006E000000102E0019BC3E90045C3E902457DE04A
:1006F000039B029C27F0004B23F0004522462B462B
:1007000030465946B24640F0EDFB08B1A246AB4632
:10071000002200235046594640F0DAFB60BB5246A7
:100720005B463046394640F095FA524604460D463F
:100730005B46DDE9020140F08DFA224606460F468F
:100740002B462046294640F05BF9324604460D46CA
:100750003B463046394640F053F902460B462046A8
:1007600029463FF09BFF2DF06BF802460B465046A2
:10077000594640F045F901E0504659462CF05CFEE0
:10078000D8E9002304460D46D8E902012CF0D4FD37
:10079000D9E9002306460F462046294640F030F9A5
:1007A0002CF0CEFDD9E9002304460D4630463946EB
:1007B00040F026F9804689462CF02EFD02460B4675
:1007C0002046294640F01CF906460F464046494659
:1007D0002CF06EFD019B0246C3E9006720460B46E4
:1007E000294640F00DF9019BC3E90201019805B0CB
:1007F000BDE8F08F000000002DE9F04F2DED0A8BD1
:1008000091F890309FED948A95B005460C4693463A
:1008100023B980ED008A80ED018A09E19FED88AB64
:1008200001F1540AB0EE489A4FF000090DF1280882
:100830000EAF584640F090F8CDE90201CDE9100125
:1008400048468DED12AB40F075F810AE3A46CDE952
:100850000E0131464046FFF70FFF9DED0A7BDAF8A7
:1008600000300793DDE90C018DED047B40F0C0FB07
:100870000690DDE9040140F0BBFBDAED018A079B3D
:10088000CDED008A0146069A08A840F019FCDDED7E
:10089000088ADDED099A78EE888A79EE899A09F15D
:1008A0000109B9F1030F0AF1080AB0EE688AB0EE47
:1008B000699A9FED63BBBCD1B1EE69CA18EE903A5C
:1008C00019EE902A18EE901A08A88DED00CA40F093
:1008D000F7FB08989FED608A40F03EF82CF0B0FFDF
:1008E00040F086FBD4ED207A0AEE100ACAEE27AA61
:1008F00070344FF00009B0EE489A9DED027B4846F7
:100900008DED107B8DED12BB40F014F83A46CDE929
:100910000E0131464046FFF7AFFE23680693DDE93E
:100920000C0140F065FBDDE90AAB049059465046E6
:1009300040F05EFBD4ED01CA069BCDED00CA014636
:10094000049A08A840F0BCFBDDED087A09F1010922
:1009500038EE278ADDED097AB9F1020F04F10804B7
:1009600037EE899AC9D1F1EE497ACDED007A18EEC9
:10097000103A19EE902A18EE901A08A840F0A0FB41
:1009800019EE102A18EE903A18EE101A08A88DEDFC
:1009900000CADDF82080099C40F092FB089B0E9372
:1009A0003946099B0F933046CDF840801194FFF7EC
:1009B00031FD00244FF040430093119A10992346D3
:1009C00008A840F02FFDB5EE40AAF1EE10FADDF8D0
:1009D000208003D1C5ED00AA6C6029E01AEE100A50
:1009E0003FF0BAFF00221D4B2CF0A6FD06460F4635
:1009F00040463FF0B1FF32463B4640F02BF940F015
:100A0000F7FA3FF0A9FF10A3D3E900233FF0F8FF66
:100A10002CF062FAC5ED00AA40F0EAFA3FF09CFF24
:100A20000BA3D3E900233FF0EBFF40F0E1FA68604D
:100A3000284615B0BDEC0A8BBDE8F08FAFF30080FF
:100A40000000000000000000F6285C8FC2F5D03FD7
:100A5000F8C1631ADCA54C4000000000000008400B
:100A600038B5D1F88C200C460546FFF7C5FED4ED0D
:100A7000237A94ED227A77EE877A2846C4ED237A9A
:100A800038BD000010B5054C204607F093FB20460A
:100A9000034A0449BDE8104003F0A4BDE40C002063
:100AA00098010020D1810008027B22B10368002256
:100AB0000273DB6818477047F0B5C16A2DED028BF1
:100AC0000B7893B00446FBB1012380F8283080F8FE
:100AD000293008A8FFF718FC636A0793119B069357
:100AE0000F9B0493109B05930D9B02930E9B039306
:100AF0000B9B00930C9B01939DF82010099A0A9B75
:100B000004F13000FFF72AFD94F82830002B39D08B
:100B1000D4ED2F7AF5EEC07AF1EE10FAC0F2028130
:100B2000B7EE008AF4EEC87AF1EE10FA00F2FA801D
:100B300008A804F13001FFF793FF94F834300898C7
:100B4000002B94F82A30FFEE007A08BFB0EE678AD7
:100B5000002B00F0F5803FF0FFFE0022904B3FF0AD
:100B60004FFF064618EE100A0F463FF0F5FE02460C
:100B70000B46304639463FF043FF40F039FAE0611A
:100B8000099B236294F82930022B00F0BD80D4F831
:100B9000F0301A78002A54D094ED077A226A9A60CD
:100BA000B5EEC07AF1EE10FA83ED017A28DDF7EEAA
:100BB000007AC7EE876ADA68F2EE047A67EEE67AC0
:100BC000F2EE006AE7EE267A92ED097AF4EEC77A41
:100BD000F1EE10FA80F2CE801A6992ED097AF4EE05
:100BE000C77AF1EE10FA80F2C5805A6992ED097A5F
:100BF000F4EEC77AF1EE10FA80F2BC809B6918E03F
:100C00001FD5F7EE006AC6EE877ADA69F2EE046A5B
:100C100067EEA67AF2EE006AE7EE267A92ED097A9E
:100C2000F1EE677AB4EEE77AF1EE10FA40F2A280C4
:100C30001B6A93ED097AF4EEC77AF1EE10FA80F2AE
:100C4000998094F82930012B03D0022B40F0968034
:100C50005AE0216AA069FFF723FB94F82A30002BA1
:100C60004DD0E069D4F8EC503FF076FE21F000431F
:100C7000C5E90201194640F0BBF93FF06DFE2B6853
:100C80000646D86E0F463FF067FE02460B463046DA
:100C900039463FF001FD12AB63E90A01686802685A
:100CA0001946126890470022002306460F4640F07E
:100CB00019F948B900223B4B3046394640F030F92B
:100CC00020B10026374F01E000260027C5E9046760
:100CD000DDE90823D5E90201C5E906230022002346
:100CE00040F000F918B107F100432E616B61D4F8B0
:100CF000EC30D3E9040140F07BF9014600E0E16902
:100D0000A069FFF7E1FA39E0216AA069FFF7C8FAA4
:100D1000A069FFF7E7FAD4F8EC30586803685B681D
:100D200098472BE020692049BC3006F043FB0023A4
:100D3000E361022384F82930002384F8283021E776
:100D40003FF00AFE10A3D3E900233FF083FF10A376
:100D5000D3E900233FF054FE0FA3D3E900233FF073
:100D60009DFC40F045F907EE900A27EE888A84ED55
:100D7000078A05E7022384F8293062E713B0BDEC47
:100D8000028BF0BDAFF30080C381902C6002B33FB3
:100D9000659DFE82F888DA3F72D1884E9DA013408F
:100DA00000005940000034404829040838B5054681
:100DB000074B45F8183B044606F06CFC636A13B118
:100DC0009B6828469847204606F0C4FC204638BD5C
:100DD0007838040810B50446FFF7E8FF20462821BC
:100DE00006F0FEFE204610BD10B5054C204607F06B
:100DF000E1F92046034A0449BDE8104003F0F2BB84
:100E0000E50C002098010020D181000810B5074BA7
:100E10000360074B044640F8C43FFFF7C7FF04F1E7
:100E20003000FFF7CFFA204610BD00BF3829040874
:100E30009038040810B50446FFF7E8FF2046F42177
:100E400006F0CEFE204610BD38B504460D4606F02D
:100E5000D1FD2946204603F0D7F906F0F5FD06F04E
:100E6000C9FD2046142103F097FA06F0EDFD06F0C7
:100E7000C1FD2046034903F0BBF806F0E5FD20461E
:100E800038BD00BFAC1C9A3D704700000000000058
:100E900038B50D46044606F0ADFD28463FF05CFD32
:100EA00009A3D3E900233FF0ABFD09A3D3E9002355
:100EB0003FF0F4FB40F09CF80146204603F098F820
:100EC000BDE8384006F0C0BD40BD19355F254F3F35
:100ED000DD2406819543B33F704710B50C210446CD
:100EE00006F07EFE204610BDB0F90030013310B58B
:100EF000044604D148220649064806F061FDA3686D
:100F00001A6863681A4214BF0120002010BD00BF98
:100F100070290408A629040838B5B0F90030013357
:100F200004460D4604D13A220549064806F048FD1C
:100F300063680DB1E26801E022691B04136038BDEB
:100F400070290408A629040838B504460D4606F0A1
:100F500051FD2946204603F04BF8BDE8384006F025
:100F600073BD704738B52DED028B08EE101AB5EE43
:100F7000C08A0446F1EE10FA00F1200004F13405B5
:100F800004D50021FFF7C8FF012103E00121FFF78D
:100F9000C3FF00212846FFF7BFFFF0EEC87A17EE27
:100FA000901A04F10800FFF7CFFFBDEC028B38BDAB
:100FB000FFF7D8BF38B500F120052DED028B0446B0
:100FC000284608EE101AFFF78FFFB0FA80F14909A2
:100FD000284604F13405FFF79FFF2846FFF784FFFA
:100FE000B0FA80F149092846FFF796FFF0EEC87A7B
:100FF00017EE901A04F10800FFF7A6FFBDEC028B74
:1010000038BD000010B5002104462030FFF784FFF2
:1010100004F134000021FFF77FFF034904F10800C9
:10102000FFF792FF10BD00BF0000C842034610B595
:1010300053F8042B044602B9036022689A4204D094
:1010400059220349034806F0BBFC206810BD00BFCD
:10105000BE290408E029040808B50248FFF7E6FFA6
:1010600008BD00BF2C24002008B50248FFF7DEFFB2
:1010700008BD00BF2C2400202DE9F84304460E468D
:1010800004F1080598469146142706F0B3FC314652
:10109000284604F1200603F0B7F806F0D5FC3A46DE
:1010A0000021304630F074FF4946304604F13406E2
:1010B00006F0A0FB3A460021304630F069FF414679
:1010C0003046104E06F096FB0F4BA3643046FFF7F8
:1010D000ADFFBDF9201004F14C0002F089F8304654
:1010E000FFF7A4FF06F086FC2846C82102F0F4FFB3
:1010F00006F0AAFC054B2360002363602046BDE890
:10110000F88300BF2C240020602904080AD7233C60
:101110001FB58DF80D3000238DF80C20009303AA25
:10112000022305F039FFB0FA80F0400905B05DF800
:1011300004FB000038B504461D4605F0BDFE194904
:10114000204605F0F9FE572320223A212046FFF7DA
:10115000DFFF2B4621223A212046FFF7D9FF7823D3
:1011600024223A212046FFF7D3FF002326223A21EA
:101170002046FFF7CDFF102D0DD004D84DB1082D1E
:101180000ED1094B0AE0182D07D0202D08D1074BAE
:1011900004E0074B02E0074B00E0074BC4F8D830EF
:1011A000204638BD400D030023DBF93D5A643B3F28
:1011B00023DB793D5A643B3E23DB793EF0B585B0B5
:1011C0001F460A9E8DF80F20012EC2BFD3B263F0D6
:1011D0007F038DF80F30012300930DF10F020446B9
:1011E0000D4605F0D9FE50B9009033463A462946DF
:1011F000204605F0F2FEB0FA80F0400900E0002041
:1012000005B0F0BD000000002DE9F04186B00625D4
:10121000884617461E46009502AB28223A2104460E
:10122000FFF7CCFF40B1009504AB08223A212046DD
:10123000FFF7C4FF054608B900257AE09DF80920AC
:101240009DF8083094ED367A9DF8100043EA0223A9
:101250001BB207EE903A9DF80B209DF80A30F8EE8D
:10126000E77A43EA022367EE877A1BB2C8ED007A79
:1012700007EE903A94ED367A9DF80D209DF80C30EB
:10128000F8EEE77A43EA022367EE877A1BB2C7EDEE
:10129000007A07EE903A94ED367A9DF81130F8EE28
:1012A000E77A43EA002067EE877A00B2C6ED007A5B
:1012B00007EE900AF8EEE77A17EE900A3FF04CFB43
:1012C0001FA3D3E900233FF09BFB3FF091FE0C9B53
:1012D00018609DF813309DF8120043EA002000B218
:1012E00007EE900AF8EEE77A17EE900A3FF034FB2B
:1012F00013A3D3E900233FF083FB3FF079FE0E9B5D
:1013000018609DF815309DF8140043EA002000B2E3
:1013100007EE900AF8EEE77A17EE900A3FF01CFB12
:1013200007A3D3E900233FF06BFB3FF061FE0D9B69
:101330001860284606B0BDE8F08100BFAFF300801A
:101340007B14AE47E17AC43F1FB58DF80D30002302
:101350008DF80C20009303AA022305F01DFEB0FABD
:1013600080F0400905B05DF804FBF0B585B004AC31
:1013700006460F461D4604F8012D72B60023009361
:101380002246012305F008FE38B9009001232246C9
:101390003946304605F021FE08B1002003E09DF8F3
:1013A0000F302B70012062B605B0F0BD13B50446B6
:1013B00005F082FD2046114905F0BEFD0F232022D5
:1013C000D62120468DF80730FFF7BEFF02AB002282
:1013D00003F8012DD62123222046FFF7C6FF9DF8F2
:1013E0000730232203F0CF03D62120468DF80730A3
:1013F000FFF7AAFF204602B010BD00BFA086010083
:10140000F0B585B01F460A9E8DF80F20012EC2BF91
:10141000D3B263F07F038DF80F30012300930DF1F9
:101420000F0204460D4605F0B7FD50B90090334653
:101430003A462946204605F0D0FDB0FA80F0400932
:1014400000E0002005B0F0BD7FB51C4606230E4627
:1014500015460093282202ABD621FFF7D1FF70B3C7
:101460009DF809209DF80830DFED166A43EA022353
:101470001BB207EE103A9DF80B209DF80A30B8EE2B
:10148000C77A43EA022327EE267A1BB286ED007A5A
:101490009DF80D2007EE103A9DF80C3043EA022328
:1014A0001BB207EE903AB8EEC77AF8EEE77A27EE6D
:1014B000267A67EEA67A85ED007AC4ED007A04B04C
:1014C00070BD00BF00000C4170470000F8B5044635
:1014D000084B094E44F8043B05460F463046FFF7DB
:1014E000A5FD3946204601F083FE3046FFF79EFDFC
:1014F0002846F8BD602904082C24002038B5234C68
:101500002DED028B05462046FFF790FD281D01F0CA
:10151000D3FE08EE100A2046FFF788FD1C4B93ED22
:10152000006A1C4BD3ED006A1B4B93ED007A1B4BFA
:10153000D3ED007A1A4B28EE077A68EE277A27EE69
:10154000087A67EE887A27EE087A67EE887A27EEBF
:10155000087A67EE887A68EE266AE7EE087A66EE21
:10156000886A28EE066AE6EE887A93ED007A0D4BDB
:10157000E6EE087AE7EE087ABDEC028B93ED007A8E
:1015800077EE877A17EE900A38BD00BF2C24002032
:101590009C010020A8010020A0010020A40100203F
:1015A000AC010020B0010020704710B53021044686
:1015B00006F016FB204610BD70B590F82C309CB09C
:1015C000044603B3114903A831F03AF904F10C05BC
:1015D00004F1240655F8043F586A3FF0BDF903AA08
:1015E000CDE900010A49104631F02AF9B542F1D19E
:1015F00003AA0849104631F023F9A06A064903AA54
:10160000BC3005F0D7FE1CB070BD00BFF429040843
:10161000FB290408042A04080A2A040882B070B5C9
:10162000064604A880E80C0034460023B3603373F8
:1016300005460A4B716044F8103B0FCD0FC495E886
:1016400003000A9B84E80300B3620123304686F856
:101650002C30BDE8704002B0704700BF182A040863
:1016600037B5144602AA0023054642F8043D084651
:10167000094931F00BF9012808D1019B0749002BDA
:10168000D4BF0023012385F82C3000E00449204614
:1016900031F0D6F803B030BD112D0408C22804087B
:1016A000C8280408FFF7DCBFF0B5002384681D4696
:1016B00001269C420CD0426852F82320916857685A
:1016C0000131B942916024BF167395600133F0E790
:1016D000F0BD7047836C013383647047D0ED167A98
:1016E00090ED177AF8EEE77A0023C7EE876A8365F4
:1016F000D0ED187AF8EE677A86EEA77A80ED197A3F
:101700007047D0ED167A90ED177AF8EEE77A00235D
:10171000C7EE876A10B50446836504F16401D0ED15
:10172000187AF8EE677A86EEA77A80ED197A806EDD
:1017300003681B689847E06610BD022380F82930D3
:1017400070477047C36A0133C3627047034610B1E4
:1017500003C983E8030070477047034610B107C907
:1017600083E8070070477047034610B103C983E858
:101770000300704770470368406818474268036871
:10178000806812F0010F4FEA620218BF81581044BE
:1017900018BFCB5818470368406818477047704710
:1017A0007047704770B5C5680469D1ED007A6B1C4D
:1017B0000C22B3FBF4F504FB15356A438318C560AE
:1017C000D9699E69C3ED057A4E609B6902449960B0
:1017D0008168143291420BD14B6893ED007AF4EE9C
:1017E000C77AF1EE10FA0CDD9942836009D009E066
:1017F00091ED007AF4EEC77AF1EE10FA36D88260F5
:1018000034E04B680121661E93ED007AF4EEC77A4E
:10181000F1EE10FA04DDB14202D85B680131F3E762
:101820000C219E6801FB05057260AB61EE619A6058
:1018300083684360610800228A42436803D05B6882
:1018400043600132F8E7E2075DBF9A6893ED007AE2
:10185000D2ED007AD3ED007A5EBF77EE877AB6EEEE
:10186000007A67EE877A17EE900A70BD0B46C9E7DB
:10187000D0ED056ADFED107AC0ED066A91ED007AD1
:1018800090ED026A80ED057AF0EE675AE7EE065AAF
:1018900090ED036AB0EE657AA6EE267AD0ED046A82
:1018A00090ED016AE6EE267A77EE677AC0ED047A6B
:1018B00017EE900A704700BF00000000006902495F
:1018C000BC3005F077BD00BF802C04081FB500F1C7
:1018D0003003029300F12C03019300F12803044626
:1018E000009300F1200200F1240300F11C010069C3
:1018F000FFF78AFC04F13C0304F1380204F13401DF
:101900006069FFF7A1FD0123237604B010BD10B577
:1019100004461430FFF7F2FD20622069036804F1E9
:1019200020011B689847606210BD10B54FF48871A4
:10193000044606F055F9204610BD10B51C2104469A
:1019400006F04EF9204610BD10B54021044606F0C1
:1019500047F9204610BD10B51421044606F040F9A1
:10196000204610BD10B52421044606F039F9204662
:1019700010BD000037B504461546084601AB6A465F
:101980000B4930F083FF02280BD1009BE361019BE0
:101990002362002384F82830012384F82930054984
:1019A00000E00549284630F04BFF03B030BD00BFD2
:1019B000BC280408C2280408C828040837B504460F
:1019C0001546084601AA0D4930F060FF01280ED1E6
:1019D0000023E361019B2362022384F82930D4F8B9
:1019E000EC3000210020C3E90201054900E005496F
:1019F000284630F025FF03B030BD00BFBF280408E3
:101A0000C2280408C8280408FEF790BC10B5044B8F
:101A1000044640F8143BFFF757FD204610BD00BFB9
:101A2000E02A040810B50446FFF7F0FF20463021F5
:101A300006F0D6F8204610BD37B5144602AA00239A
:101A4000054642F8043D0846094930F01FFF0128C9
:101A500007D1019B0749002BD4BF002301232B7022
:101A600000E00549204630F0EBFE03B030BD00BF7A
:101A7000112D0408C2280408C82804082A30FFF7DA
:101A8000DBBFFFF7D9BF0D30FFF7D6BF00F108036A
:101A900073B5044603600D4681B1084632F070F913
:101AA0000F2805EB000601900BD9002201A9204662
:101AB00017F036F9019B2060A36002E0074806F0AA
:101AC000B7FE32462946206817F07CF9019B226850
:101AD000636000212046D15402B070BD842C0408FC
:101AE000437B10B504466BB10369D86E3EF034FFFA
:101AF000A46902460B4604F1BC000349BDE810404E
:101B000005F058BC10BD00BFAE2C040838B5B0F9C4
:101B100010300133044604D148220C490C4805F02A
:101B20004FFFA3691D6863691D40B4F9103001338C
:101B300004D13A220549064805F042FF63690DB910
:101B4000E26901E0226A1B04136038BD70290408B1
:101B5000A629040838B505460024AB689C4207D284
:101B60006B6853F8240003689B6898470134F4E7D6
:101B700038BD70B5044672B6FF263546206905F0BB
:101B80007BFC80B3D4F81831D4F81C110133B3FBBB
:101B9000F6F2C2EB02229B1A8B4224D02069BC30A1
:101BA00005F0F6FBD4F81831D4F81C110133B3FB5F
:101BB000F6F2C2EB02229B1A8B42DFD0D4F8183126
:101BC0002344C0B21876D4F818310133B3FBF5F2D0
:101BD000C2EB02229B1AC4F81831D4F82031013329
:101BE000C4F82031CAE762B670BD08B5FFF7C1FF7F
:101BF00008BDC36810B504460BB19B6898472046E2
:101C000010BD000010B5044B044640F8043BFFF73C
:101C1000F0FF204610BD00BF1837040810B5044B74
:101C2000044640F8043BFFF7E4FF204610BD00BF28
:101C300018370408C36810B504460BB19B68984771
:101C4000204610BD38B50446054B44F80C3B05460C
:101C5000204605F01FFD2046FFF7A8F8284638BDAE
:101C6000302A040810B50446FFF7ECFF2046342163
:101C700005F0B6FF204610BD38B5094B036090F85B
:101C800030300446051D2BB1002380F83030284643
:101C900005F000FD2846FFF789F8204638BD00BF53
:101CA000102B040810B50446FFF7E6FF2046342148
:101CB00005F096FF204610BD70B506460B4B46F862
:101CC000983B044646B100F1B805B54204D0103D3A
:101CD0002846FFF7AFFFF8E704F13800FFF789FF68
:101CE00004F12800FFF785FF204670BD6038040826
:101CF00010B50446FFF7E0FF2046BC2105F070FF59
:101D0000204610BD10B5094B036003F120025C337F
:101D10000446C0F8BC20C0F8C030BC3005F012FB4F
:101D20002046FFF7C9FF204610BD00BFA0370408BA
:101D3000A0F1BC00E6E7A0F1C000E3E738B5CB684E
:101D400004460D460BB15B689847EB68E36020469C
:101D500038BD000030B52DED028B85B005466846D4
:101D600008EE102AFFF7EAFFDFED0D7A05F11804FF
:101D700028EE278A2046BCEEC88AFFF75BFF1CB11D
:101D800069462046FFF7DAFF18EE101A284605F0DC
:101D90006DFC6846FFF74EFF05B0BDEC028B30BD11
:101DA0000024744970B586B004461546084601AB58
:101DB0006A46154930F06AFD02281ED194F8293090
:101DC000DBB10023E361019B23620099A069FEF768
:101DD0008DFA0E4B029302A90D4B0E4A0593002675
:101DE00004F1C40003960494FFF7B4FF02A8FFF7C0
:101DF00021FF84F82960084900E00849284630F0AE
:101E00001FFD06B070BD00BFBC2804083B170008CA
:101E10004C2B04080AD7233DC2280408C82804080C
:101E20007FB51C4C1C4D1D4E20464FF4E121BC34A7
:101E300005F00EFB1A49204605F0BCFA294620465B
:101E400005F0B8FA3146204605F0B4FA15492046A7
:101E500005F0B0FA3146204605F0ACFA2946204696
:101E600005F0A8FA1049204605F0A4FA0F480190A1
:101E7000012380F830300E4B00930E4A0E4B039333
:101E800069460430FFF766FF6846FFF7D3FE00207F
:101E900004B070BD7C120020C22C0408D62C0408AB
:101EA000BD2C0408EA2C0408BF2C040814100020E0
:101EB0004517000817B7D138582B040810B5FFF79D
:101EC000AFFF044618B90548FFF744FEFBE702469A
:101ED0000349044805F06EFA204610BD6015002045
:101EE000FE2C040838130020D0F8082110B5013268
:101EF000D0F80441FF23B2FBF3F1C1EB0121521AE8
:101F0000A24214D0D0F808210132B2FBF3F3C3EBA4
:101F10000323D31AC0F80831D0F8083103441B79E1
:101F2000D0F80C21013AC0F80C21184610BD002051
:101F300010BDF8B5044672B6FF2600F5927520690B
:101F400005F0ABFAB0B1D4F82C32D4F82812013332
:101F5000B3FBF6F2C2EB02229B1A8B420AD0206935
:101F600000F1BC072846FFF7BFFF0146384605F0E1
:101F7000FBF9E4E762B6F8BD38B5114B20250446FD
:101F80002A4640F8043B002130F002F80D4B636212
:101F90002A46002104F128002FF0FAFF0A4BA3641F
:101FA0001822002104F14C002FF0F2FF074B63666A
:101FB0001022002104F168002FF0EAFF204638BD0E
:101FC00010290408E0280408F0280408002904085F
:101FD000F0B505461C4B45F8143B00F58E7100F139
:101FE00020030024002243F80C4C43F8082C43F84B
:101FF000042C0C338B424FF0000EF4D10146002329
:1020000015240C275E1CB6FBF4F204FB126207FBDE
:102010000202143214338A61B3FBF4F204FB12336C
:1020200007FB03031433152ECB61C1F814E03346CC
:1020300001F10C01E6D1142200F18C03C2600661AB
:1020400043608560F0BD00BF3C2B0408C36810B539
:1020500004460BB19B689847204610BD38B5CB6845
:1020600004460D460BB15B689847EB68E360204679
:1020700038BD38B504461546FFF708FD294604F17A
:102080001800FFF7EBFF204638BDF8B507460C46B1
:1020900094B1E1683846FFF7F8FF04F1100604F147
:1020A0002800A568FFF7D2FF304616F05FFE2046F5
:1020B00002F002FB2C46EBE7F8BD10B58168044640
:1020C000FFF7E3FF204610BD10B5054BD0F84013D5
:1020D0000360044600F54E70FFF7D7FF204610BDA1
:1020E000982A040810B50446FFF7EEFF20464FF487
:1020F000547105F075FD204610BDD1E90023C0E9FB
:102100000023D1E90223C0E90223704710B5D1E9C9
:1021100000230446D1E902013EF09CFDC4E904011C
:1021200010BD00002DE9F04F9DB00BAB01930AAB41
:10213000009305469246084609AB08AA484930F084
:10214000A5FB042840F0858009983EF005FC8046F8
:102150000A9889463EF000FC06460B980F463EF072
:10216000FBFBCDE9060108983EF0F6FBC5E902014C
:10217000286F3EF0F1FB42464B463EF041FC05F134
:102180001008CDE90C01CDE90E010CA94046FFF77E
:10219000B4FF344B0FCB0DF1400E18AC8EE80F009E
:1021A00084E80F0071464046FFF7B0FF32463B46D9
:1021B000304639463EF072FA0022CDE914014FF064
:1021C0004043304639463EF01BFC05F1400BCDE95B
:1021D000160114A95846FFF790FFDDE906231046C3
:1021E00019463EF05BFA0646286F0F463EF0B4FBF8
:1021F0008046894602460B46304639463EF04EFA46
:1022000032463B46CDE91801404649463EF044FA85
:10221000CDE91A0121465846FFF778FF08983EF0AD
:102220009BFB04460B980D463EF096FBCDE904015E
:102230000A983EF091FBCDE9020109983EF08CFB33
:102240002246CDE900012B460749504630F0F8FA06
:1022500003E00649504630F0F3FA1DB0BDE8F08FB8
:10226000142D0408682B0408212D0408C82804082C
:1022700008B5FFF757FF08BD08B180E80600014B1D
:10228000C3607047402B040808B517F0E7F8C00F8B
:1022900008BD00002DE9F043D0F81C31D0F818112A
:1022A0000133FF22B3FBF2F2C2EB02229B1A8B42F4
:1022B000ADF5097D044600F08B801430FFF714FE65
:1022C0002328074604D184F8340204F235237DE044
:1022D000D4F8343304F54D72934279D00A286FD183
:1022E00013F8032C3B2A6BD113F8022C3B2A67D13D
:1022F00013F8013C0D2B63D104F50D7808AB6A4649
:102300003549404630F0C2FA022857D1694648A8FC
:10231000FFF7BCFB04F54F79D4F840634D4666B136
:1023200048A906F11000FFF7AFFF18B9B3683546AA
:102330001E46F4E7F3682E46F9E7A94507D005F1F4
:10234000100148A8FFF7A0FF002818BF4D4648A875
:1023500016F00CFDA94531D0204B48AA03F1100E10
:1023600018685968164603C6083373453246F7D1D4
:102370001B883380EE2200210DF599702FF008FEA6
:1023800048A902A8FFF782FB6B6B05F128062BB961
:1023900040F21D621249134805F012FB6B6B48AA0C
:1023A0001B6808A93046984720690F4948AB6A4620
:1023B000BC3004F0FFFF02A816F0D8FCC4F8348348
:1023C000D4F834331F70D4F834330133C4F83433C1
:1023D0000DF5097DBDE8F0833F2D0408782B040836
:1023E000492D0408652D04086A2D040800220023E5
:1023F000C0E900237047D0B5002600270446C0E995
:102400000267E0E80467FFF7F1FFC4E90667C4E983
:102410000867C4E90A672046D0BD2DE9F0418D6800
:1024200004460F4690460E1D01205DB105F11001D6
:102430004046FFF729FF18B1AB682E461D46F4E76A
:10244000EB68FAE748B1FB689E4201D125600DE0D8
:10245000304605F0E7FB054600E03546414605F10C
:102460001000FFF711FF18B100232360666001E040
:10247000256060602046BDE8F08138B538200D4603
:1024800002F002F90446103008D0294617F024F86B
:1024900005F1180104F12800FFF7E0FD204638BDE2
:1024A0002DE9F74304460D4691464D4530D063690A
:1024B00033B12669294606F11000FFF7E5FE18BB87
:1024C0002A4621466846FFF7A8FF9DE84800CEB19E
:1024D000271D43B9B74206D006F110012846FFF781
:1024E000D3FE804601E04FF0010829462046FFF761
:1024F000C4FF3B4601463246404605F095FB636902
:10250000013363612835D0E7002EFBD0271DE1E7BA
:1025100003B0BDE8F0832DE9F0470D468146103148
:10252000186816461F46FFF7A8FF2B780370002394
:10253000C360E96883600446466029B102463B46B1
:102540004846FFF7E8FFE060AE68A0464FF0000A9B
:10255000D6B106F110013868FFF78FFF3378C0F865
:102560000CA0F1680370C0F808A00546C8F8080080
:10257000C0F8048029B102463B464846FFF7CBFF2E
:10258000E860B668A846E3E72046BDE8F08773B583
:102590000446051D0E461022002128462FF0F8FCA7
:1025A000E5602561B16800236361A1B102AB2A46F1
:1025B00043F8044D2046FFF7AEFFA06003469A683B
:1025C0000AB11346FBE7E360C3680BB11846FBE7AB
:1025D000736920616361204602B070BD0000000095
:1025E0002DE9F04F2DED048BB748B84CADF50D7DBE
:1025F00005F0E0FDB64AB749B34801F0F3FF4FF4E8
:1026000016530093032200230221B34804F022FE54
:10261000AF4AB249B048002501F0E4FF15238DE828
:10262000280013220A232721AD48FDF71BFEA84AE4
:10263000AC49AB4801F0D6FFAB4BAC482360FEF78A
:10264000F5FC0421601800F0D3FDA848FEF7EEFC6D
:102650009F4AA749204601F0C5FF2B4618221921A1
:10266000A448A54CFEF766FD994AA449A14801F08B
:10267000B9FF18221921A248FEF798FE944AA149F1
:102680009F4801F0AFFF20469F4B40F8043B05F008
:1026900041F89E4B6360A5628D4A9D49E5622046E4
:1026A00084F8305001F09EFF1422294632A82FF002
:1026B0006FFC32AC052132A805F09CF80FCC2DAE92
:1026C0000FC62768934C41F28833A56025732546D1
:1026D00063602DAE904B45F8103B0FCE0FC5B4F99B
:1026E00010302F60013304D13A228C498C4805F018
:1026F00067F9E36962691A608A49754A85488A4EB2
:102700008A4FDFED8B8A9FED8B8ADFF8789201F09C
:1027100069FF8948894B43600024894B84600473B6
:1027200003606B4A6C4B8749036101F05BFF864A8B
:102730008649946064235360854B13606D4B13612D
:102740006F4B53611346147314761846604A01F0B8
:1027500049FF06F5887393E803007E4B3B607E4B90
:102760007B6007F1080383E803007C4B87ED048A54
:1027700093ED009A7A4B87ED058AC9EE287A984640
:102780009C601C7332AD0DF1A00A8AE8030085E855
:10279000030016214FF4FA7B87ED068AFCEEE77AF8
:1027A000C3ED017A6F4B48F8103B404604F092FCB1
:1027B0006B4BC5F800909C6529466B4BC5F80480AF
:1027C0004046EB6004F0BCFC2846FFF733FA664B4A
:1027D000C5F8009029464046C5F80480EB6004F037
:1027E000D9FC2846FFF726FA5D4B604983ED179A1E
:1027F00028221A665A4A83ED198A5D4B13601346E4
:1028000097661846324A01F0EDFE544B1F68384671
:102810003EF0A2F8574A584B1360894622A3D3E9E9
:1028200000235449804601F11000C1E90223FFF75B
:10283000E2FD504B03F14000FFF7DDFD4D4B4046FC
:102840001F6749461AA3D3E900233EF0D9F88CABA1
:1028500063E96C01C3E9020106931946454B474FF2
:1028600003F11000FFF749FC96E80F0024AE86E85C
:102870000F0085E80F003F4B314603F11000FFF7D2
:1028800045FC0DA3D3E90023CAE900230CA3D3E937
:102890000023CAE90223374B394E03F14000514669
:1028A000FFF72BFC70E000BF4981053065E0F13F88
:1028B000B1A206D3307CF03F7D3F355EBA49EC3F94
:1028C0007D3F355EBA49ECBFEC1600204810002071
:1028D00098010020D18100087C120020051D00080D
:1028E000A41100208D020008602904082C24002077
:1028F000D90E00085410002014100020051C0008F8
:10290000941500201D1C0008102B040878380408BA
:10291000791C000898160020582A04087029040819
:10292000A6290408A1170008682B04081412002027
:1029300017B7D1380000000090110020A0860100D8
:10294000702A04089F170008D40F0020A31700085E
:10295000402A0408202B040891CF3ABF000200202F
:10296000F80D0020B02A0408582B04081131000883
:10297000C82A0408701400202C2B0408601C0020B6
:10298000501B0020D5160008EEA3D3E900234046D3
:1029900049463DF083FEEBA3D3E90023C5E90001DE
:1029A000404649463DF078FEBF4BDFF8A083DFF894
:1029B000A093C5E9020103F140002946FFF7A6FBF9
:1029C000BA4B2146181D28222FF0E2FAB84AB9491D
:1029D000B64801F007FE4046FFF7FAFA3046FFF727
:1029E000F7FA3846FFF7F4FAB348FFF7F1FAB348BD
:1029F000FFF7EEFAB248FFF7EBFAB24BB24AC3F870
:102A000004B09C601C73012103F114001A60C3F828
:102A100010800793FEF75AFD079BAC4A9A62AC49B7
:102A2000A34ADC62184683ED088A83ED098A01F027
:102A3000D9FDA84BA44AC3F804B09C601C732021A4
:102A400003F114001A601E61FEF740FDA14B9F4A7E
:102A50009A629F49964ADC62184683ED088A83EDA4
:102A6000098A01F0BFFD984BC9F804B0C9F80840C5
:102A700089F80C40102109F11400DFF8D882C9F858
:102A80000030C9F81070FEF721FD904B884A90493C
:102A9000C9F828304846C9F82C4089ED088A89EDE4
:102AA000098A01F09FFD884BC8F804B0C8F80840B7
:102AB00088F80C40C8F8003021217F4B864FC8F8B9
:102AC000103008F11400FEF701FD804B784A804970
:102AD000C8F828304046C8F82C4088ED088A88EDB0
:102AE000098A01F07FFD784BC7F804B0BC603C73E5
:102AF0003B600721714B794E3B6107F11400FEF7F3
:102B0000E5FC724B6A4A7249BB623846FC6287ED4B
:102B1000088A87ED098A01F065FD6B4BC6F804B0A1
:102B2000B460347333600621654BDFF82CB2336137
:102B300006F11400FEF7CAFC644B5D4A6449B362B7
:102B40003046F46286ED088A86ED098A01F04AFD76
:102B5000079BCBF80C30CBF820605E4B604ECBF877
:102B600010305A4B8BF80040CBF81880CBF81C7013
:102B70008BED018A8BED028ACBF81490049306F159
:102B800008030FCB8DE80F0041F2883196E80C0066
:102B90005448DFF8C881544E544FFEF73FFD444A75
:102BA0005349504801F01EFD524BC8F800303E4BCF
:102BB000C8F80430504BB46093ED007A4F4B33604B
:102BC000C7EE287A414B33614D4B73614D4BB36176
:102BD0004D4B7362354BF3624C4B3363347306F1E8
:102BE0003800FCEEE77A86F82840C6ED017A86F8D0
:102BF0002A4086ED078A86ED088AFFF7BDF921464F
:102C000086F8C040282206F1C4002FF0C1F906F171
:102C1000C40004F07FFD3E4BC6F8E840C6F8C4305F
:102C2000234A3C49C6F8EC803046C6F8F0B001F0C3
:102C3000D9FCFA237B60384B3B602E4BBC603C7365
:102C40003B611B4A214B3549BB6138467C73C7F851
:102C5000148001F0C7FC324631495046FFF70CFBA7
:102C6000524630492846FFF704FA32462E4924A836
:102C7000FFF702FB24AA2D493CA8FFF7FAF93246D8
:102C80002B490698FFF7F8FA069A2A4946A8FFF753
:102C9000F0F932462849294E1CA8FFF7EDFA1CAA84
:102CA000274950A85CE000BF70140020980E002057
:102CB00098010020D3160008701D0020C40E0020CB
:102CC000E80C0020E8140020E02A04087C12002010
:102CD0000D1A0008680E0020BC16002030120020DB
:102CE000E801002030150020781300206012002039
:102CF000A9150008F80D002000020020382904085A
:102D0000D40F0020A41100200AD7233C282904084E
:102D1000903804080D0E0008F82A04089D170008D2
:102D200075190008732D0408BD190008782D0408D2
:102D3000A51D00087D2D04087D1A00081815002027
:102D4000822D0408AA047226F953A33F401A0020DA
:102D5000601100203011002054130020781600204C
:102D6000FFF787F97D4A7E4918A8FFF785FA18AA68
:102D70007C495AA8FFF77DF95A467B4914A8FFF70A
:102D80007BFA14AA794964A8FFF773F9784A79495C
:102D900010A8FFF771FA10AA77496EA8FFF769F932
:102DA000764A77490CA8FFF767FA0CAA754978A804
:102DB000FFF75FF93A46744908A8FFF75DFA371D37
:102DC00008AA724982A8FFF754F921461022384612
:102DD0002FF0DEF87461F760376130468CAA29461F
:102DE000FFF75EFB6A4C6B4E82AF07F11800FFF7EE
:102DF0002DF93846283F15F0B9FFBA45F5D108A896
:102E0000FFF724F90CA8FFF721F910A8FFF71EF926
:102E100014A8FFF71BF918A8FFF718F91CA8FFF76B
:102E200015F90698FFF712F924A8FFF70FF9504695
:102E3000FFF70CF9584A5949594801F0D3FB584952
:102E40002846FFF7A4FB574B5749196057491C61A7
:102E5000002259615A609A601A7303F118070C46F0
:102E600003F21713114607F8011B9F424FF00000B1
:102E70004C4AF8D1FE23C2F81801C2F82441C2F826
:102E80001C31C2F8200102F5947302F2272203F8E4
:102E9000010B93424FF00007424CF8D1FE2304F59A
:102EA0000D78C4F828724FF48072C4F82C32394679
:102EB000C4F8307240462FF06BF8294604F54E7086
:102EC000C4F83483FFF763FB394B2069CAF80C6000
:102ED0003A4651468AE8180004F064FB5046FEF773
:102EE000A9FE344B2069CAF80C60012251468AE8D9
:102EF000180004F057FB5046FEF79CFEA9682846D0
:102F0000FFF7C3F8244A2C4920462C4C01F06AFBF9
:102F10002B4B23602B4B636004F10C000D23A3604B
:102F200004F0F8FB284BE360284B294A276385E827
:102F30001800294604F10C00EE60FEF70BFF28464E
:102F4000FEF778FE144A2349204601F04BFB0DF5AD
:102F50000D7DBDEC048BBDE8F08F00BF980E002006
:102F6000091A0008872D0408831A00088C2D04080C
:102F70007014002071220008912D040830150020E3
:102F8000A5160008962D0408871A00089B2D040832
:102F90007C120020582B040898010020BB20000858
:102FA00018150020F0160020982A0408882A040822
:102FB000EB1B0008331F0008C92000086015002023
:102FC000302A0408B401002078380408A916000843
:102FD00017B7D138451C000810B50446FEF792FE1D
:102FE0002046D82104F0FCFD204610BDA0F1BC0015
:102FF000F2E7A0F1C000EFE72DE9D043D0E9066782
:10300000C0E90867D1E900230446C0E90623D0E9F6
:1030100000013DF0F5FC002200233DF03FFBD4E928
:10302000022380468946304639463DF0E9FC424657
:103030004B463DF033FBD4E9042306460F46D4E962
:103040000A013DF0DDFC002200233DF027FB024693
:103050000B46304639463DF01FFBC4E90A01BDE886
:10306000D083F8B5D1E9002304460D46D0E902012A
:103070003DF0C6FC06460F4604F110002946FFF756
:10308000BBFF02460B46304639463DF007FB06467D
:103090000F4604F140002946FFF7AEFF02460B46FB
:1030A000304639463DF0FAFAF8BD13B50022002348
:1030B0000446C0E90623C0E908236846FFF796F9ED
:1030C000DDE90023C4E90A2302B010BD10B50446AF
:1030D0001030FFF7EAFF04F14000FFF7E6FF10BDF4
:1030E000FFF77EBA10B5044B044640F8103B03F0DE
:1030F000C3FF204610BD00BFB02A040810B5044627
:10310000FFF7F0FF2046682104F06AFD204610BD5D
:1031100010B5034B03600446FFF7E4FF204610BDE3
:10312000C82A040810B50446FFF7F2FF20467021B4
:1031300004F056FD204610BD1FB504461022684617
:1031400000212EF025FF284B22681A60A279012366
:1031500001930293122A43D8DFE802F02C2B0A0CC9
:103160000E10121416181A1C1E20222426282A00BB
:1031700002231EE003231CE004231AE0052318E0C9
:10318000062316E0072314E0082312E0092310E0C9
:103190000A230EE00B230CE00C230AE00D2308E0C9
:1031A0000E2306E00F2304E0102302E0112300E0C9
:1031B000122300930D4A0C48536823F440036946D8
:1031C000536001F087FE084801F0D0FD06480A214F
:1031D00001F02CFE20B9044801F078FE80B200E036
:1031E000002004B010BD00BFE03A002000230140E1
:1031F00073B505460C460846264904F03BFB28609B
:10320000013004D124482549362204F0D9FB204658
:10321000204904F04BFB431C064604D120481F49BB
:103220003A2204F0CDFBC6F3C426EF2CAE7103DCCA
:103230002046184904F0E2FA29681A4BAC809942FA
:103240000FD11948036813BB0193184B5A6C42F411
:1032500080725A645B6C03F480730193019B0123B9
:10326000036013480023012201604360836003610F
:10327000836103624362C3628362C360C2610363AA
:10328000436101F0C9FC10B10A4804F0FBFB02B035
:1032900070BD00BF1C3004080C3104082431040840
:1032A0007F31040800200140801E002000380240C9
:1032B000E03A00209831040808B5FFF73DFF07EE1B
:1032C000900AB8EE677ADFED037A67EE277A17EE99
:1032D000900A08BD0108803910B50C4CA268A4689A
:1032E000B4F1006F13460CD1131F094A53F8044F71
:1032F00042F8044F074CA242F8D1044A4FF0005361
:103300009360103043F8201010BD00BF00ED00E0C6
:10331000FCFFFF1F90010020431C10B5044604D1A0
:1033200006480749262204F04BFB2046002100F006
:10333000F5FD04F00F040120A04010BDAB290408E6
:10334000AF31040870B504464B1C0E4621800ED0E8
:10335000C1F3031000F072FD05463046FFF7DCFFB5
:1033600005F1100318356060A360E560256170BD4C
:10337000B0F9000000F000BE38B5B0F900300133FC
:1033800005460C4604D107480749492204F018FBBA
:10339000012CB5F900000CBF21460021BDE83840E2
:1033A00000F0BCBDA6290408AF3104082DE9F041A6
:1033B000154E4C2404FB006407468846043400255F
:1033C00045451ED04C237B430121F35801FA05F2F9
:1033D0001A4213D00D4A236B5069D4F818E001FA51
:1033E00003F303420AD05361206838B1DEF810209D
:1033F0001342074B08BF02211B689847013504346C
:10340000DEE7BDE8F08100BF841E0020003C0140E3
:103410009820002000200121FFF7C8BF01200146AD
:10342000FFF7C4BF02200121FFF7C0BF0320012125
:10343000FFF7BCBF04200121FFF7B8BF05200146FC
:10344000FFF7B4BF06200146FFF7B0BF2DE9F74FE5
:103450009B464B1C81460D46019266D001F00F0839
:1034600008F1FF33C1F303100E2B09D8DFE803F096
:103470000C1014181C1C1C1C1C20202020202000B8
:103480002C4F0024062616E02B4F0124072612E0BD
:103490002A4F022408260EE0294F032409260AE0B9
:1034A000284F04240A2606E0274F0524172602E0A9
:1034B000264F0624282600F0C1FC4FFA86FA009019
:1034C0000721284600F02AFD50463946FFF704FF41
:1034D00006F01F01012202FA01F04FEA5A131C49BB
:1034E00041F823001B4B89F8006053F828601A4903
:1034F000A9F80C504C23634302FA06F5CA58C9F8E0
:1035000004402A430020C9F80800CA50132303FBD3
:10351000046401EB8403009ADA61C3F804B0C3F8D1
:1035200034800E4B019A1A6000E0084603B0BDE8F3
:10353000F08F00BF153400081D3400082534000842
:103540002D340008353400083D34000845340008A7
:1035500000E100E0F8310408841E002098200020DB
:10356000F8B54468174A0546808900F00F03C0F398
:10357000031000F580100126803006FA03F1800266
:1035800052F8237001F02CFE4C210F4AB5F90C00C3
:103590006143BE40535823EA0606132303FB04731A
:1035A000565002EB830100244C60991D0C3302EB52
:1035B000810102EB83034C605C60214600F000FD5A
:1035C000AC60F8BDF8310408841E0020A2B10129C6
:1035D00005D18368023B012B08D981601EE00229D6
:1035E00021D1836823F00203012B03D103238360DD
:1035F000082119E0816007E0012907D18368023BB7
:10360000012B0DD80223836007210DE002290AD186
:10361000836823F00203012B02D18360062103E0BB
:103620008260114600E00C21B0F90C0000F0C8BC2B
:1036300038B5144B1A68116911F0020F1C4607D0F7
:10364000D368980704D56FF00203136104F042F9C0
:1036500023681A69510714D5DA68520711D56FF03B
:103660000402094D1A615C6A2B68E31AB3F57A7F8C
:1036700007D301F0C1FA034B1B6804F57A729A6311
:103680002C6038BD783B00209C20002030B589B0EC
:1036900003A801A902F012FF02F0E0FE002302934A
:1036A000234B01901A6C234C42F008021A641A6CE6
:1036B00002F008020292029A1A6A42F008021A62A2
:1036C0001A6A22F008021A62069AA3F50B332360E5
:1036D0004FF0FF33E360184B02B14000B0FBF3F052
:1036E00001380025606013482561A560656102F01E
:1036F000C7FF32201149FFF7EFFD114B0D484FF482
:1037000080225A60294603F08BF80421094803F00F
:1037100087F823680B4A596A1160126802F57A72B9
:103720009A63DA68284642F00402DA6009B030BDD4
:1037300000380240783B002040420F00313600083C
:1037400000E100E09C20002010B5054B9C6820465D
:1037500001F0CAFF2046BDE8104002F0EDBA00BFFC
:10376000A020002010B5054B5C68204601F0BCFF8E
:103770002046BDE8104002F0DFBA00BFA0200020C4
:1037800010B5054B1C68204601F0AEFF2046BDE891
:10379000104002F0D1BA00BFA02000202DE9F8436C
:1037A00090F8647090F865607DB274B28046894686
:1037B0002846FFF791FD49462046FFF78DFD98F812
:1037C0006830002B0CBF02230123002DA8BF05F198
:1037D00060424FEA0313AFBF02F56142144A07F09B
:1037E0000F00D9B2AABFD9B2115482F80013002C2D
:1037F000ADBF04F1604206F00F010D4A02F56142CF
:10380000B5BFDBB2DBB2535482F800336D0901233C
:10381000084A07F01F07640906F01F0603FA07F1BC
:10382000B34042F8251042F82430BDE8F88300BFC9
:1038300014ED00E000E100E010B590F8654090F96B
:10384000640001F0D7FB60B2BDE8104001F0D2BBCC
:1038500090F85830012B00F1040107D004D3022B5B
:10386000054818BF002002E0044800E00448054A6B
:1038700042F82310704700BF49370008813700081D
:1038800065370008A0200020194A03681268C16D3E
:10389000B2FBF1F1142243604A439969890701D5CB
:1038A000013AFAD1134A934208D1134B1A6A42F4EF
:1038B00000121A621A6A22F4001216E00F4A9342AA
:1038C00008D10D4B1A6A42F480021A621A6A22F475
:1038D00080020AE00A4A934208D1074B1A6A42F46E
:1038E00000021A621A6A22F400021A62704700BFCC
:1038F00008020020005400400038024000580040F8
:10390000005C0040F8B5124BC26D1B68B3FBF2F2CD
:1039100014235343426804460E46071D91698907E4
:1039200001D5013BFAD100252946A660E56038465D
:1039300002F015FB4FF480436361A5612562656267
:103940002561E561384601F0F1FCE665F8BD00BF90
:1039500008020020F0B5044685B00E4608465649D8
:10396000154603F087FF55490746284603F082FFB6
:10397000A4F860600146A4F86250384603F05CFF8A
:103980002060013005D14E484E4940F20D1204F03E
:1039900017F822684C4B9A4223D10023019384F8F4
:1039A00058304A4B44491A6C42F400121A641B6C9A
:1039B00003F4001301933046019B03F01FFF2846D8
:1039C0003E4903F01BFF3046012100F0D5FA28469E
:1039D000012100F0D1FA1F2384F86430202384F8F9
:1039E000653022683A4B9A4224D100230293012782
:1039F000364B84F858701A6C2F4942F480021A64CE
:103A00001B6C03F4800302933046029B03F0F6FE26
:103A100028462A4903F0F2FE3046394600F0ACFA57
:103A20002846394600F0A8FA212384F8643022237E
:103A300084F865302268274B9A4224D1022384F807
:103A4000583000230393214B1B491A6C42F40002A7
:103A50001A641B6C03F4000303933046039B03F0CA
:103A6000CDFE2846154903F0C9FE3046012100F07D
:103A700083FA2846012100F07FFA482384F8643055
:103A8000492384F86530E36D0BB9134BE365204699
:103A9000FFF7FAFE2046E16DFFF734FF002384F8BC
:103AA000693084F8683084F86A3084F86730042319
:103AB00084F8663005B0F0BDA02D0408982F0408E6
:103AC00038320408523204080054004000380240E2
:103AD00000580040005C0040A08601002DE9F34141
:103AE00016460446089A00F104081D468FB203B139
:103AF0005EB94046394601220A2301F05BFD0028E9
:103B00000CBF00206FF001004EE090F86630042BEF
:103B100001D0082B04D10AB1042308E0012306E0F8
:103B2000013B012B05D80AB1082300E0022384F8E9
:103B30006630002384F867302046FFF789FE01468F
:103B40002046FFF72BFE94F8663000934046394636
:103B50003246ABB201F0B4FC10BB154BE66D1B68EE
:103B6000B3FBF6F61E235E4305FB066694F867304A
:103B700013F01E0F05D1013E03D0012003F08DFF8D
:103B8000F4E72046FFF758FE1EB194F86730082B83
:103B900009D02046B4F96010B4F96220FFF7DAFECC
:103BA0006FF0010000E0284602B0BDE8F08100BFE0
:103BB000080200202DE9F34116460446089A00F158
:103BC00004081D468FB203B15EB940463946012252
:103BD0000A2301F0EFFC00280CBF00206FF0010069
:103BE0004EE090F86630042B01D0082B04D10AB1C6
:103BF000042308E0012306E0013B012B05D80AB1AC
:103C0000082300E0022384F86630002384F867303C
:103C10002046FFF71DFE01462046FFF7BFFD94F842
:103C200066300093404639463246ABB201F0ECFBB9
:103C300010BB154BE66D1B68B3FBF6F61E235E4307
:103C400005FB066694F8673013F01E0F05D1013EA0
:103C500003D0012003F021FFF4E72046FFF7ECFD3D
:103C60001EB194F86730082B09D02046B4F96010D3
:103C7000B4F96220FFF76EFE6FF0010000E0284605
:103C800002B0BDE8F08100BF08020020436F07B515
:103C9000ABB1D0F8843093B190F86C200AB108220F
:103CA00000E0022280F8622090F86220B0F86810EC
:103CB0000092D0F880209BB201F002FC02E00823C1
:103CC00080F8633003B05DF804FB082380F86330AC
:103CD000704738B5051D04460261284601F026FBF1
:103CE0002046FFF7B5FD01462046FFF757FD284661
:103CF000BDE8384001F048BC70B590F86450044607
:103D0000061F05B1C568B4F95C10B4F95E203046F1
:103D1000FFF720FE00210B4630462A46FFF7D9FF69
:103D2000022384F8633070BD19B9012380F865302F
:103D30007047012908BF80F866107047002380F89B
:103D400065307047002380F86630704701F01CBC76
:103D500010B5044650F80429536823F4E063536017
:103D6000FFF76AFD022384F8633010BD7FB503F0CE
:103D700041FE01A8052103F03DFDBDF904300133EA
:103D800004D10E480E493A2203F01AFE049B029A0F
:103D90001A60962003F08CFEBDF90430013304D183
:103DA000064807493A2203F00BFE029B059A1B04C2
:103DB0001360962003F07CFEDFE700BFA62904080D
:103DC0009932040830B50546A1B00C4603F012FE46
:103DD00029466846224635F093FB051E03DC03F0B6
:103DE00033FE21B030BD094B1B6823B908480221BE
:103DF000032200F08FFD00241DF804100448013454
:103E000000F0B4FEAC42F7D1E9E700BF0024002087
:103E1000283B00200FB407B504A951F8040B019109
:103E2000FFF7D0FF03B05DF804EB04B0704708B5AE
:103E300002F08CFEBDE8084000F0C6BE7FB500234E
:103E4000072853D8DFE800F004111E2B38525245E2
:103E500000932A4B2A481A6B42F001021A631B6B2B
:103E600003F001030093009B44E00193234B25489A
:103E70001A6B42F002021A631B6B03F002030193F8
:103E8000019B37E002931D4B1F481A6B42F004025E
:103E90001A631B6B03F004030293029B2AE0039353
:103EA000164B1A481A6B42F008021A631B6B03F098
:103EB00008030393039B1DE00493104B14481A6BF3
:103EC00042F010021A631B6B03F010030493049B6F
:103ED00010E00593094B0F481A6B42F080021A63F9
:103EE0001B6B03F080030593059B03E00A4803F076
:103EF000C9FD002007B05DF804FB00BF0038024098
:103F0000000002400004024000080240000C024091
:103F100000100240001C0240FC32040830B5431C73
:103F200087B005460C4604D110481149812203F0A0
:103F300047FDC5F30310FFF781FF05F00F050123CF
:103F4000AB4004F00F0201930A4B53F82230029366
:103F5000C4F302130393C4F3C314032301A904930A
:103F6000059401F06BF807B030BD00BFAB29040821
:103F70001D33040874330408431C70B506460C4610
:103F800004D10D480D49A62203F01AFDC6F3031013
:103F9000FFF754FF06F00F05C1686B0003229A403B
:103FA00021EA0202032CC260C26828BF00249C40A0
:103FB0001443C46070BD00BFAB2904081D3304085E
:103FC00038B50546C0F303100C46FFF737FF05F080
:103FD0000F02C3685200D34003F0030304F00F0143
:103FE000284641EA0311BDE83840FFF797BF0000BB
:103FF00030B507EE101A284B02681A60B5EEC07A89
:10400000F1EE10FA89B0054609D4F7EE007AB4EE65
:10401000677AF1EE10FAC8BFB0EE677A01E09FED63
:104020001F7AD5ED037AF8EE677A602267EE877A19
:104030000192FCEEE77AAA68C5ED047A17EE903A91
:10404000B3FBF2F3029300230393049305930693C7
:1040500007932B7D013B032B1CD8DFE803F00802FC
:104060000406042404E0082402E00C2400E00024F8
:10407000094801A9224602F063FB10B1084803F089
:1040800001FD6B7D0448214613B102F001FC01E003
:1040900002F0DCFB09B030BDB420002000000000BD
:1040A000A8330408C368ABB190ED047A07EE903AE8
:1040B000B8EE477AF8EE677AC7EE277AB7EE007A5D
:1040C000F4EEC77AF1EE10FAD4BF17EE900A17EEAD
:1040D000100A7047002070472DE9F041D0F80080A9
:1040E000414C86B005460E46C4F80080FFF7DAFF63
:1040F000D8F8202041F21113134007465BB9D8F8D5
:10410000202040F2444313402BB9D8F8003023F06C
:104110000103C8F8003001A8694602F0CFF92B6806
:10412000324A93421BD00BD8A2F50062934216D0BC
:1041300002F58062934212D0B3F1804F51D10EE06C
:104140002B4A934210D002D8A2F5804204E0294ABB
:10415000934209D002F58062934205D041E002F01B
:104160007DF90090049803E002F090F90090059822
:10417000009A2149B6F5803FACBF4FF4FA73012392
:10418000AB60AB6800B15200B2FBF1F212FB03F37B
:104190009BB2013B63606368B3F5803F02D317486D
:1041A00003F070FCAA68731EB3FBF2F3B3F5803F13
:1041B000E36002D3124803F065FC00230A48236140
:1041C000A36002F077FA10B10E4803F05BFCEE60DA
:1041D00028463946FFF70CFF2268136843F00103B5
:1041E000136006B0BDE8F081B4200020000C004050
:1041F000004001400044014040420F00BF3304082A
:10420000DB330408A833040870B5044688B00846B8
:104210000E46554903F02EFB2060013004D153486F
:1042200053492D2203F0CCFB30464F4903F03EFBAF
:10423000431C054604D14F484D49312203F0C0FBD1
:10424000C5F3C4234C4A23752368C5F30045934244
:1042500065754FF000020BD10092484A516C41F055
:1042600001015164526C02F001020092009A3BE09D
:10427000B3F1804F0BD10192404A116C41F0010122
:104280001164126C02F001020192019A2CE03C4987
:104290008B420BD10292394A116C41F00201116438
:1042A000126C02F002020292029A2DE035498B4212
:1042B0000BD10392314A116C41F004011164126C6C
:1042C00002F004020392039A2EE02F498B420BD195
:1042D0002A4B04921A6C42F008021A641B6C03F019
:1042E00008030493049B2EE0284A93420CD1002338
:1042F0000593224B5A6C42F480325A645B6C03F48F
:1043000080330593059B1EE0214A93420CD1002384
:1043100006931A4B5A6C42F400325A645B6C03F4F5
:1043200000330693069B0EE01A4A93420BD10023FA
:104330000793124B5A6C42F480225A645B6C03F46C
:1043400080230793079B0849304603F057FA002360
:10435000E36023610123A680A360204644F6206128
:10436000FFF7BAFE08B070BD302E0408F43304081D
:104370000C3404087F31040800000140003802407A
:104380000004004000080040000C004000400140D4
:1043900000440140004801404FF47A735943FFF74D
:1043A0009BBE70477047036870B504465B6A9847C8
:1043B000236820461B69002101229847431C0646BA
:1043C000236804D120469B6A9847304670BD1B691C
:1043D00020460021022298472368054631460022E4
:1043E0001B6920469847236820469B6A98472846C1
:1043F00070BD000008B5084B1B685BB90748022177
:10440000032200F087FA05484FF41651BDE8084032
:1044100000F02ABB08BD00BF00240020283B00207C
:1044200002284FF0000309DDC21E074951F822009F
:1044300041F8223020B103685B681847184670477E
:104440004FF0FF30704700BFFC200020022870B5FD
:104450000C4615460FDC0E4B1B680BB9FFF7CAFF65
:104460006619B44205D00B4814F8011B00F07EFB1E
:10447000F7E7284670BD0338074B53F8200020B1FA
:104480000368BDE870401B6818474FF0FF3070BDEF
:1044900000240020283B0020FC200020022810B52A
:1044A0000C460ADC0B4B1B680BB9FFF7A3FF0A484D
:1044B00000F040FB2070012010BD0338074B53F87B
:1044C000200020B10368BDE810409B6818474FF0FA
:1044D000FF3010BD00240020283B0020FC200020DD
:1044E000022807DD0338064B53F8200020B103688B
:1044F000DB681847012070474FF0FF30704700BF5E
:10450000FC200020022807DD0338064B53F820006A
:1045100020B103681B691847002070474FF0FF3037
:10452000704700BFFC200020022808B504D84FF4D3
:1045300000534B60002008BD2BF03CFE09230360B4
:104540004FF0FF3008BD0000014803F09BBA00BFE8
:104550007434040808B5012000F046F8704708B527
:10456000FFF765FCFFF7FAFF08BD704708B5FFF7D6
:10457000FCFFBDE80840FDF7A1BC00000C4A136831
:1045800010B51844EFF30881884205D3094B0C227B
:104590001A604FF0FF3010BD0749096821B1074C80
:1045A000246821448842F1D21060184610BD00BF33
:1045B00004020020B43B0020F8200020FC21002051
:1045C000074C08B52368054698682BF0FDFE236864
:1045D000D8682BF0F9FE0DB1FFF7C8FBFEE700BF6E
:1045E000C80600200120704708B5FFF7E9FF012049
:1045F000704700212EF02AB82BF0F8BE70477047A4
:104600007047704708B5FFF7F9FF08BD08B5FFF719
:10461000F6FF08BD08B5FFF7F3FF08BD08B5FFF7C3
:10462000F0FF08BD10B5037803F00303012B044627
:104630000CD02BB10648074940F2213203F0C0F9F3
:10464000237843F002032370012010BD002010BD29
:104650007E340408A434040810B5037803F003037F
:10466000022B044605D00648064940F2293203F0E1
:10467000A7F9237823F0030343F00103237010BD4F
:10468000E4340408A434040810B52CF0C3FF044635
:1046900010B9024803F0F6F9204610BD233504088E
:1046A00010B52CF0B7FF044610B9024803F0EAF940
:1046B000204610BD4035040808B12CF0B3BF704748
:1046C00008B12CF0AFBF70470B4B10B50360044628
:1046D0000A48FCF7ABFC0023094A52F82310A14218
:1046E00004BF002142F823100133402BF4D10348CA
:1046F000FCF79CFC204610BDC0350408F0200020CB
:10470000FC2000202DE9F3418846364905462EF06D
:104710003BF9044610B9FFF76DFE5EE028463249CA
:104720002EF032F918B9FFF765FE012455E028464E
:104730002E492EF029F918B9FFF75CFE02244CE04F
:104740002B48FCF773FC00242A4E56F824303746D9
:1047500033B10134402CF7D12548FCF767FC3AE02F
:104760004FF0FF33224846F82430FCF75FFC2B78EB
:104770003A2B06D1284620496A462EF087F8009841
:1047800024E06846294602F03BFB684602F07AFBCB
:1047900010B946F824001EE0684602F061FB18B12B
:1047A000684602F066FB11E0684602F052FB0546DF
:1047B00010B946F824000EE0036868469E6802F0CF
:1047C0003DFB28F4803201462846B04747F82400D4
:1047D00008B1033401E04FF0FF34204602B0BDE8D9
:1047E000F08100BF65340408B03504086C34040857
:1047F000F0200020FC200020AC35040843092033C1
:1048000000F01F0004490122824041F82320BFF339
:104810004F8FBFF36F8F704700E100E04268184987
:104820000346920110B588181C688C509A68426043
:104830000246D96842F8081F1969516059699160A8
:1048400000F110011A6A8A600022C261C284828467
:10485000C2858285B3F91A20013201D1082305E00F
:10486000B3F9183001330CBF04230C234B6002F062
:104870003EF920B10348BDE8104003F003B910BD74
:1048800000220020EC3504081A4BF7B5074653F810
:1048900020001E4600282BD0174CBD0163591A6812
:1048A00052060AD5DB68590607D5144B01211B684F
:1048B000984763596FF040021A6063591A6892066C
:1048C0000DD5DB6898060AD50C4B56F827001B68F7
:1048D00000219847084B5B596FF020021A6063591A
:1048E0001A68110704D55A69D20744BF5B6801935F
:1048F00003B0F0BD04240020002200202424002066
:104900000020FFF7C1BF0120FFF7BEBF0520FFF762
:10491000BBBF0000F0B5044685B008460E464949C5
:10492000154602F0A7FF48490746284602F0A2FFB5
:104930000146384602F080FF2060013004D1434830
:104940004349662203F03CF82368424A93421DD053
:1049500002F5806293422FD0A2F55042934241D19A
:104960003D4B1A6A42F400321A621A6A22F400328B
:104970001A62002202921A6C42F400321A641B6C12
:1049800003F400330293029B01232AE0324B5A6A5C
:1049900042F010025A625A6A002122F010025A6252
:1049A00001915A6C42F010025A645B6C616003F032
:1049B00010030193019B15E0274B5A6A42F0200235
:1049C0005A625A6A22F020025A62002203925A6CFA
:1049D00042F020025A645B6C03F020030393039BB4
:1049E000052363603046174902F008FF2846164940
:1049F00002F004FF721C03D030460121FFF7BCFA1D
:104A00006B1C03D028460121FFF7B6FA4FF416536A
:104A1000A3600023E36023616361236226836583CF
:104A20002046FFF7FBFE22680C4B9A4207D10C4B45
:104A30000C4801221A6021464C222DF0ABF905B03A
:104A4000F0BD00BFD42F0408E82D04080436040884
:104A500020360408001001400038024000440040A5
:104A600000240020283B00208160FFF7D7BE000013
:104A7000034B19604168034B43F82120704700BF86
:104A8000242400200424002038B54368012B0D465F
:104A900005D0052B06D043B91C49252407E01C4945
:104AA000262404E01B49472401E000210C461A4853
:104AB0009B01AAB1C258D36815B943F0200301E0A5
:104AC00043F0400365B2D3602846FEF705FC6D094C
:104AD00004F007040123114AA34042F8253038BDF1
:104AE000C358DA6835B922F02002DA60DB681A06AA
:104AF00006D538BD22F04002DA60DB689B0604D49C
:104B00002046BDE83840FFF779BE38BD01490008AE
:104B1000074900080D4900080022002000E100E0DC
:104B20004368034A9B01D3581868C0F3401070478C
:104B30000022002038B5446805462846FFF7F0FFFC
:104B40000028FAD0A401034B1B595868C0F3080091
:104B500038BD00BF002200204368034A9B01D358A0
:104B60001868C0F3C01070470022002070B5456877
:104B700006460C463046FFF7EFFF0028FAD0AD019D
:104B8000024B5B59C4F308045C6070BD0022002036
:104B9000DFF820D0002103E0074B5B58435004317D
:104BA0000648074B42189A42F6D302F0A9F8FBF7E1
:104BB0001FFB7047008001200CB9040898010020F9
:104BC000C40C0020FEE7000008B50A4B1A6842F446
:104BD00000721A601A6842F480621A601A6842F41D
:104BE00080721A600F20FEF751FD00F026FA0020B7
:104BF00008BD00BF003C0240024A13680133136045
:104C0000704700BF743B0020014B1868704700BF1D
:104C1000743B00207047000010B50446002800F0E7
:104C20009E80036C23B9436480F83C30FFF7F2FFA9
:104C3000236CDB0600F18E80236C23F4885323F071
:104C4000020343F002032364464B5A6822F44032C5
:104C50005A60596862680A435A60236821695A6831
:104C600022F480725A605A6842EA01225A605A68F5
:104C700022F040725A605968A2680A435A609A68E2
:104C800022F400629A609968E2680A439A603649A1
:104C9000A26A8A420ED0996821F070619960996881
:104CA0000A439A609A6822F040529A609968E26AD0
:104CB0000A4306E09A6822F070629A609A6822F0CD
:104CC00040529A609A68A16922F002029A609A683A
:104CD00042EA41029A60226A9AB15A6842F400623A
:104CE0005A605A6822F460425A604FF4604191FA67
:104CF000A1F1626A5868B1FA81F1013A8A4002432F
:104D000002E05A6822F400625A60DA6A22F4700201
:104D1000DA62E269D96A013A41EA0252DA629A68D1
:104D2000216B22F400729A609A6842EA41229A60EA
:104D30009A68616922F480629A609A68002042EA67
:104D400081229A606064236C23F0030343F0010323
:104D5000236400E00120002384F83C3010BD0120D2
:104D600010BD00BF002301400100000F82B00023EE
:104D7000019390F83C30012B4DD0012380F83C305A
:104D800003689A68D10703D59A68D20712D437E02E
:104D90009A68224942F001029A60214A1268B2FBE5
:104DA000F1F202EB42020192019A002AECD0019A40
:104DB000013AF8E7026C22F4E06222F0010242F4C8
:104DC000807202645A68510541BF026C22F440525D
:104DD00042F480520264026C12F480521CBF426C96
:104DE00022F006024264002280F83C206FF022028A
:104DF0001A600C4A5268D20604D00B4A934201D082
:104E0000002009E0986810F04050F9D19A6842F00B
:104E100080429A6000E0022002B0704740420F00DA
:104E200008020020002301400020014003689A6826
:104E300070B5560504460D460BD59B68D80508D5B8
:104E4000236C43F020032364002384F83C300120CA
:104E500070BDFFF7D9FE064623681A68920711D481
:104E6000691CFAD045B9236C43F004032364002382
:104E700084F83C30032070BDFFF7C6FE801BA842BB
:104E8000EAD9F0E76FF012021A60226C42F4007265
:104E900022649A6812F0405F01D0002070BDA269C0
:104EA000002AFAD1DA6A12F4700F02D09B685B050F
:104EB000F3D4236C23F480732364206C10F48050AB
:104EC000EBD1236C43F00103236470BD0368D86CFD
:104ED00070470000F7B50023019390F83C30012B98
:104EE00063D00D688A680123092D80F83C30ACB28C
:104EF00003680FD904EB4406DF681E3E4FF0070E2F
:104F00000EFA06FE27EA0E07DF60DF68B2403A437A
:104F1000DA600DE01F6905EB450E072606FA0EF66E
:104F200027EA06061E611E6902FA0EF232431A6172
:104F30004A68062A4FEA82010CD80A445E6B053A99
:104F40001F21914026EA01015963596B94400C439B
:104F50005C631AE00C2A0CD80A441E6B233A1F210A
:104F6000914026EA01011963196B94400C431C63BC
:104F70000BE00A44DE6A413A1F21914026EA010112
:104F8000D962D96A94400C43DC62164A934204D039
:104F9000002380F83C30184622E0122D07D1124A37
:104FA000536843F48003536001E0022018E0A5F148
:104FB0001003012BECD80C4A5368102D43F4000366
:104FC0005360E5D1094B0A4A1B68B3FBF2F20A238E
:104FD00053430193019B002BDAD0019B013BF8E77F
:104FE00003B0F0BD00200140002301400802002072
:104FF00040420F004309203300F01F000449012202
:10500000824041F82320BFF34F8FBFF36F8F70476B
:1050100000E100E090F83530022B01BF0523026863
:1050200080F83530136815BF802323F001034365F2
:10503000136014BF01200020704770472DE9F34131
:105040000F6800220123934003EA07059D4240F0C8
:10505000B9804C6824F0100CBCF1020F14D14FEA57
:10506000D20E00EB8E0E02F00706DEF82030B600FE
:105070004FF00F0808FA06F823EA08080B69B34056
:1050800048EA0303CEF820304FEA420E03230668B5
:1050900003FA0EF3DB4303EA060804F0030606FAFC
:1050A0000EF60CF1FF3C48EA0606BCF1010F066063
:1050B00011D8866803EA060CCE6806FA0EF64CEAAA
:1050C00006068660466826EA050CC4F3001696407C
:1050D0004CEA06064660C66803EA060C8B6803FACB
:1050E0000EF64CEA0603C360E3006BD5394E00238D
:1050F0000193D6F844E04EF4804EC6F844E0766C56
:1051000006F480460196019E22F0030606F18046D1
:1051100006F59C3602F0030CD6F808804FEA8C0C9A
:105120004FF00F0E0EFA0CFE28EA0E0EDFF8AC80E0
:10513000404519D003F1804303F5013398420ED066
:1051400003F5806398420CD003F5806398420AD03F
:1051500003F5806398420CBF0423052304E0012378
:1051600002E0022300E0032303FA0CF343EA0E03F8
:10517000DFF864E0B360DEF80030EE4314F4803F03
:1051800014BF2B433340CEF80030DEF80430DFF894
:1051900048E014F4003F14BF2B433340CEF80430F2
:1051A000DEF8083014F4801F14BF2B433340CEF8D0
:1051B0000830DEF80C30A40254BF06EA03051D4394
:1051C000054BDD600132102A7FF43CAF02B0BDE830
:1051D000F08100BF00380240003C01400000024066
:1051E0002DE9F04100224FF0010C0CFA02F303EA22
:1051F000010E9E455FD1032302FA0CF5046803FA01
:1052000005F5ED4322FA03F72C4000EB8707046015
:1052100002F007083C6A0F264FEA880806FA08F8E9
:1052200024EA08043C628768DFF89C802F4087608E
:1052300047686FEA0E0427404760C7683D40C56075
:1052400022F0030505F1804505F59C3502EA0307C8
:10525000D5F808E0BF00BE40404506EA0E0E11D06A
:1052600008F5806840450FD0DFF860C060450DD07C
:105270000CF5806C60450AD0114B98420CBF04239A
:10528000052304E0002302E0634600E00223BB4064
:105290009E4510D1AB6823EA06060A4BAE601D6836
:1052A00025401D605D6825405D609D6825409D60CE
:1052B000DD682C40DC600132102A94D1BDE8F08119
:1052C00000100240003C0140000002400008024083
:1052D0002DE9F843089C05460E4690461F46C1F34B
:1052E00007492B68B9F1010F0CBF58699869C04391
:1052F00080B230420CBF01230023434512D17B1CF6
:10530000EFD04FB9002320222B6385F83C3085F87D
:105310003D200320BDE8F883FFF776FC001BB84270
:10532000DFD9EFE70020BDE8F883704770B5044689
:10533000002863D090F83D3003F0FF021BB980F8DD
:105340003C20FFF7F2FF22682D4D242384F83D30E6
:10535000136823F00103136001F080F8636822688A
:105360002849B0FBF1F1AB422E4688BF4FF4967549
:10537000516082BF69434FF47A75B1FBF5F1B342D6
:1053800001F10101116208D85B00B0FBF3F0C0F33A
:105390000B03032B98BF042016E0A16849B903EB67
:1053A0004303B0FBF3F0C0F30B0363B140F40040E0
:1053B0000AE019214B43B0FBF3F0C0F30B0313B128
:1053C00040F4404000E00120216AE369D0610B43D2
:1053D0001360E16823690B439360A16963690B4320
:1053E000D360136843F0010313600020202320647E
:1053F00084F83D30206384F83E0070BD012070BD0C
:10540000A086010040420F0073B50024019490F87B
:105410003D40069D202C01D002204DE0042D06D0F9
:10542000012D04D090F83C40012C1AD1F4E7234C14
:1054300046F2A8162468B4FBF6F6192474430194C6
:10544000019C661E01963CB92023046380F83C4011
:1054500080F83D3003202FE00468A469A407EFD44E
:10546000E0E7012480F83C400468266826F40066E2
:105470002660212680F83D60102680F83E600026D8
:1054800006644385C56241640385036B4262122B47
:1054900000D04BB9042D03D0012D01D0122B03D124
:1054A000236843F4807323606268002342F4E0625F
:1054B00080F83C306260184602B070BD08020020DF
:1054C00073B50024019490F83D40069D202C01D036
:1054D000022054E0042D06D0012D04D090F83C4069
:1054E000012C1AD1F4E7274C46F2A8162468B4FB25
:1054F000F6F6192474430194019C661E01963CB98A
:105500002023046380F83C4080F83D30032036E0DF
:105510000468A469A407EFD4E0E7012480F83C40C4
:105520000468266826F400662660222680F83D601E
:10553000102680F83E60002606644385C5624164FB
:105540000385036B4262112B00D083B9042D06D072
:10555000012D04D015F5803F01D0112B07D1236810
:1055600043F480632360236843F48073236062689C
:10557000002342F4E06280F83C306260184602B0DA
:1055800070BD00BF0802002090F83D30202B01BF05
:10559000282380F83D3003681A6801BF42F4806216
:1055A0001A605A6842F4407206BF00205A60022016
:1055B000704700002DE9FF4704461F468946904684
:1055C000FFF722FB94F83D30202B064601D0022045
:1055D00081E000904149204601221923FFF778FE1F
:1055E0000028F4D194F83C30012BF0D0226801233C
:1055F00084F83C30136823F400631360242384F898
:105600003D30374B20640546E3622268136843F45B
:1056100080731360204600964FF0011100223B4634
:10562000FFF756FE08B1032055E0236809F0FE029B
:105630001A61FFF7E9FA0646236859695A6994F82E
:105640003D30C1F34001C2F38022DBB269B962B9D7
:10565000A02B0AD01FB9A02384F83D30ECE7FFF758
:10566000D3FA801BB842F6D8E6E723684FF0200A49
:1056700084F83DA05A6912F0020F1A6842F40072D1
:105680001A6014D0002203925A6903929B69039313
:10569000039B00962046114901221923FFF718FEAB
:1056A0000028C0D184F83DA084F83C0013E06FF4DA
:1056B00080625A6120460096084901221923FFF7AB
:1056C00007FE0028AFD1013545459ED384F83C0044
:1056D00084F83DA0012004B0BDE8F087020010006E
:1056E0000000FFFF704770470368F0B59D69596976
:1056F0005A6890F83E40E4B2102C8BB002D0402C97
:1057000040F03F8211F0011F2FD097052DD590F862
:105710003E40402C05D1046D0CB9446C0AE0446C49
:105720000BE00469B4F5804F0AD190F83D40212C7C
:10573000446C02D104F0FE0415E044F001041AE0C8
:10574000046D34B9446C04F44074E41144F0F00482
:1057500009E0046D012C40F0A580446C04F4407411
:10576000E41144F0F1041C619CE09C4C0C4024B119
:10577000960502D5446CE4B2F5E7994C0C40002C38
:1057800000F09080940540F18D8090F83E40C66A0C
:10579000D0F830E090F83D70222FE4B27BD1076D55
:1057A00047B9402C06D101975C6901949C6901942A
:1057B000019C77E0046D84B90769B7F5404F0CD1BF
:1057C00002945C6902949C690294029C1C6844F4F3
:1057D00080741C60046D01345BE0448DA4B234B964
:1057E00003945C6903949C690394039C26E0448DB4
:1057F000A4B2012C27D1042E15D0082E13D0BEF14F
:10580000120F10D0C46A022C1C6814BF24F48064E8
:1058100044F480641C60002404945C6904949C69D2
:105820000494049C34E01C6824F480641C6000240C
:1058300005945C6905949C690594059C1C6844F476
:1058400000741C6024E0448DA4B2022C15D1C46AFB
:10585000022C1C681DBF24F480641C601C6844F486
:10586000806418BF44F400641C60002406945C69E2
:1058700006949C690694069C0AE01C6844F48064C3
:105880001C60002407945C6907949C690794079C3A
:105890000024046506E0002408945C6908949C696F
:1058A0000894089C4F4E504C2E400C40002E00F0A7
:1058B000B5804E4D0D40002D64D0510562D5002CB1
:1058C00060D190F83D20058D90F83E10C46AD2B2A8
:1058D000C9B2D5B9212A1AD1042C00F08980082C2C
:1058E00000F0868014F5803F00F082805A6822F430
:1058F000E0625A6090F83D3090F83E2003F00303D8
:105900001343036380F83E5062E0212A05D040290A
:1059100040F00D82222A40F00A82428D92B2002A83
:1059200000F0998090F83E20402A40F0AF81026D4F
:105930007AB9C26C012A826C04D1D2B21A61036DA9
:10594000023304E0C2F307221A61036D01330365D9
:10595000EDE1026D012A02D1826CD2B2F4E7026D50
:10596000022A40F0E48190F83D20222A04D11A68EE
:1059700042F480721A60DAE190F83D20212A40F06A
:10598000D68183E1002C00F0D281970540F1CF81D0
:10599000C16A90F83D20212A40F0C981428D92B21F
:1059A000002A40F07381042922D0082920D011F563
:1059B000803F1DD0596821F4E061596090F83D3076
:1059C00090F83E1003F003030B43036380F83E207E
:1059D000202380F83D30FEF759F9A8E108000100C6
:1059E000020001000400100004000100800001001A
:1059F0005A6822F4E0625A601A6842F400721A602F
:105A000000232022036380F83D2090F83E2080F898
:105A10003E30402ADFD1FFF765FE88E19E4D0D4004
:105A2000002D44D0560542D5002C40D190F83D20A1
:105A3000222A40F07C81428D92B2032A00F26E81CC
:105A4000023A012A1A6822F480621A6008D81A6899
:105A500042F400621A605A6822F480625A6066E179
:105A6000C26A022A02BF1A6842F400621A605A68C7
:105A700022F4E0625A60426A1B69511C4162137051
:105A8000438D013B9BB2438590F83D3090F83E201A
:105A900003F0030313430363202380F83D3090F8A1
:105AA0003E30402B4FF0000380F83E305DE0002C8C
:105AB00000F03D81950540F13A81C26A418D89B27D
:105AC0000329416A0BD1042A04D0082A02D012F516
:105AD000803F51D11A6822F480621A604CE0448DF4
